:020000040800F2
:10000000000002209D02000885010008850100080B
:100010008501000885010008850100080000000036
:100020000000000000000000000000008501000842
:100030008501000800000000850100088501000816
:1000400000000000000000000000000000000000B0
:1000500000000000000000000000000000000000A0
:100060000000000000000000000000000000000090
:100070000000000000000000000000000000000080
:100080000000000000000000000000000000000070
:100090000000000000000000000000000000000060
:1000A0000000000000000000000000000000000050
:1000B0000000000000000000000000000000000040
:1000C0000000000000000000000000000000000030
:1000D0000000000000000000000000000000000020
:1000E0000000000000000000000000000000000010
:1000F0000000000000000000000000000000000000
:1001000000000000000000000000000000000000EF
:1001100000000000000000000000000000000000DF
:1001200000000000000000000000000000000000CF
:1001300000000000000000000000000000000000BF
:1001400000000000000000000000000000000000AF
:10015000000000000000000000000000000000009F
:10016000000000000000000000000000000000008F
:10017000000000000000000000000000000000007F
:1001800000000000FEE7000000B583B04FF45063AC
:1001900001930023009300F0B3F8274B1B6B264A12
:1001A00043F001031363254B1B68244A23F4407377
:1001B0001360224B1B68214A43F4407313601E4BAB
:1001C0001B6C1D4A43F0005313641D4B1B681C4AF3
:1001D00043F0010313601A4B194A1B681360184B54
:1001E0001B68174A43F004031360154B1B68144A3D
:1001F00043F038031360124A019B9360104B5B6815
:100200000F4A43F001035360019B103301930C4AE2
:10021000019B93600A4B5B68094A43F001035360FA
:100220000023009302E0009B01330093009BB3F591
:100230007A7FF8DBE8E700BF0038024000000240A8
:100240000074004082B0104B0193104B009307E004
:10025000019A131D0193009B191D009112681A60E9
:10026000009B0B4A9342F3D30A4B009305E0009B9B
:1002700000221A60009B04330093009B064A9342BD
:10028000F5D300BF02B07047BC0300080000002097
:1002900000000020000000200000002008B5FFF74B
:1002A000D1FF064BD3F88830044A43F47003C2F8F8
:1002B000883000F005F8FFF767FFFEE700ED00E08B
:1002C0000D4B01221A600C4B00229A600A4B1B68EE
:1002D000094A23F0847323F480331360064B074AE2
:1002E0005A60054B1B68044A23F480231360024BB9
:1002F0000022DA6000BF704700380240103000244E
:1003000008B5FFF7DDFF294B1B68284A43F480330B
:10031000136000BF254B1B6803F40033002BF9D09A
:10032000224B1B6C214A43F080531364204B1B6803
:100330001F4A43F4804313601C4B1C4A9B68936024
:100340001A4B9B68194A43F4A0539360174B9B6860
:10035000164A43F400439360144B164A5A60134BF9
:100360001B68124A43F08073136000BF0F4B1B6879
:1003700003F00073002BF9D00F4B40F205721A60A6
:100380000A4B9B68094A23F003039360074B9B6861
:10039000064A43F00203936000BF044B9B6803F0DE
:1003A0000803082BF9D100BF08BD00BF0038024088
:0C03B0000070004008544007003C024070
:040000050800029D50
:00000001FF
