:020000040800F2
:1000000000000220C12400084B0000084B0000083B
:100010004B0000084B0000084B00000800000000E7
:100020000000000000000000000000004B0000087D
:100030004B000008000000004B0000084D000008C5
:1000400082B0019000BF02B07047FEE7054B1B680D
:10005000002B04D0034B1B68013B024A136000BF16
:10006000704700BF0C00002082B001900B468DF855
:1000700003300F4B00221A600D4B0D4A1B681360B2
:100080000B4B1A689DF803305B00094913430B6062
:10009000074A019B5360064B00229A60044B1B6881
:1000A000034A43F00103136000BF02B0704700BF72
:1000B00010E000E084B00390029101920093029B53
:1000C0005B78202B03D0222B09D1012308E0009B71
:1000D0001B88062B01D8002302E0012300E0002347
:1000E000184604B07047000000B585B003900B4679
:1000F000ADF80A30104B00934023022201210398EF
:1001000000F0C6F9002300934023022282210398C5
:1001100000F0BEF9002300931023032283210398EB
:1001200000F0B6F9054B7F222121039801F058F821
:1001300000BF05B05DF804FB41010008B5000008F0
:1001400000B587B001900B468DF8033001233D4A7E
:100150000121019800F0D7F903460293002305938B
:100160000FE0394B1B683749059A0A441178374A22
:10017000D154354B1B680133334A1360059B01335F
:100180000593059A029B9A42EBDB2F4B1B68192BB8
:100190001CD100BF2C4B1B689BB22C4A82210198BA
:1001A00000F097F90346002BF4D0274B00221A6089
:1001B0000023049307E0254A049B134400221A708D
:1001C000049B01330493049B182BF4DD1E4B1B6826
:1001D000013B1E4AD35C2A2B1ED100BF1A4B1B6861
:1001E0009BB2013B9BB2194A8221019800F071F940
:1001F0000346002BF2D0144B00221A600023039315
:1002000007E0124A039B134400221A70039B013338
:100210000393039B182BF4DD0D4B5B690C4A83F4AD
:1002200080535361322000F0ABF8094B5B69084AF8
:1002300083F480535361019800F01DF900BF07B0AB
:100240005DF804FB14000020100000205400002082
:10025000000C024000B587B002F064F9012145F2BC
:100260000820FFF701FF3D4B1B6B3C4A43F008039E
:1002700013633B4B1B683A4A23F07F431360384BB0
:100280001B68374A43F0AA431360354B5B69344A15
:1002900043F400435361314B1B6B304A43F001037D
:1002A00013632E4B5B6B2D4A43F0800353632D4B3E
:1002B0001B682C4A23F0737313602A4B1B68294A6E
:1002C00023F003031360274B1B68264A43F40023E3
:1002D0001360244B1B68234A43F400031360214B33
:1002E0001B68204A43F0007313601E4B5B6A1D4A73
:1002F00043F0A00353621B4B5B6A1A4A43F420434A
:100300005362184B5B6A174A43F4202353628023DD
:100310000293154B019303230093144B144A154980
:10032000154800F03DF805901449059800F047F98C
:10033000059800F0A0F80A4B5B69094A83F48053E2
:100340005361322000F01CF8054B5B69044A83F4CA
:1003500080535361322000F013F8E9E7003802407F
:10036000000C02400000024070000020000000204D
:10037000DC26000808260008EC260008E900000832
:1003800082B00190019B054A136000BF034B1B68BC
:10039000002BFBD100BF02B0704700BF0C00002053
:1003A00000B587B00390029101920093039B1B68F4
:1003B00098470490049B039AC3F8DC20049B029A9C
:1003C0001A60049B019A5A60049B009A9A60049BED
:1003D000089ADA60049B099A1A61049BBDF82820E8
:1003E0009A82049B0D4A1A67049B0D4ADA66049BA5
:1003F0000C4A9A660023059308E0049B059A323262
:10040000002143F82210059B01330593059B032B24
:10041000F3DD049B184607B05DF804FBE314000805
:100420003D1500080F16000800B585B00390039B2A
:1004300000229A75039B0022DA75039B1B68DB7907
:100440009AB200230093134600220021039800F083
:100450001FF8039BD3F8DC305B68002103989847B2
:10046000039BDB69002B02D0039BDB69984700BF2D
:1004700005B05DF804FB00B583B00190019BD3F893
:10048000DC305B6A0198984700BF03B05DF804FB5D
:1004900010B584B00390084611461A4603468DF8FD
:1004A0000B300B468DF80A301346ADF80830039B2D
:1004B000D3F8DC309C68BDF808009DF80A209DF850
:1004C0000B10069B009303460398A04700BF04B09F
:1004D00010BD10B584B0039001921A460B468DF8FA
:1004E0000B301346ADF80830039BD3F8DC30DC69E1
:1004F000BDF808309DF80B10019A0398A0470346F9
:10050000184604B010BD10B584B0039001921A468D
:100510000B468DF80B301346ADF80830039BD3F82B
:10052000DC301C6ABDF808309DF80B10019A039866
:10053000A0470346184604B010BD00B583B0019033
:100540000B468DF8033013468DF80230019BD3F82B
:10055000DC301B699DF802209DF803100198984734
:1005600000BF03B05DF804FB00B583B001900B46FB
:100570008DF80330019BD3F8DC309B699DF8032094
:100580001146019898470346184603B05DF804FBEE
:1005900000B583B001900B468DF8033013468DF8FB
:1005A0000230019BD3F8DC305B699DF802209DF896
:1005B00003100198984700BF03B05DF804FB84B0B6
:1005C00001900091002303931CE0019B039A3232B7
:1005D00053F82230002B0DD0019B039A323253F88E
:1005E0002230009A9A4201D1002310E0039B01338C
:1005F000039307E0019B039A3232009943F82210DB
:10060000002304E0039B032BDFDD4FF0FF3318468C
:1006100004B0704700B58FB0039001921A460B46A4
:100620008DF80B301346ADF80830019B0B93039BFC
:1006300059689DF80B2013465B0013449B0013443C
:100640000B440A930023ADF836300023ADF8163082
:100650000A9B1B789BB2BDF80820934228BF134623
:10066000ADF82630BDF826301A460A99019801F0F7
:10067000B7FFBDF82630019A13440193BDF8082056
:10068000BDF82630D31AADF80830BDF83620BDF8D5
:1006900026301344ADF836300A9B1B789AB2BDF869
:1006A000163013449BB2ADF816300023ADF8343049
:1006B0004AE10A9BD3F80920BDF834301B011344EA
:1006C0009B68002B35D00A9BD3F80920BDF8343045
:1006D0001B0113449B680893089B1B789BB2BDF8D1
:1006E0000820934228BF1346ADF82630BDF82630C7
:1006F0001A460899019801F073FFBDF82630019A57
:1007000013440193BDF80820BDF82630D31AADF884
:100710000830BDF83620BDF826301344ADF8363029
:10072000089B1B789AB2BDF8163013449BB2ADF803
:1007300016300023ADF83230F3E00A9BD3F80920DD
:10074000BDF834301B011344D968BDF8322013467C
:100750005B001344DA00D31A0B440793079B1B7802
:100760009BB2BDF80820934228BF1346ADF826304F
:10077000BDF826301A460799019801F031FFBDF8FF
:100780002630019A13440193BDF80820BDF82630A5
:10079000D31AADF80830BDF83620BDF82630134422
:1007A000ADF83630079B1B789AB2BDF8163013446B
:1007B0009BB2ADF81630079BD3F80D30002B2FD02D
:1007C000079BD3F80D10079BD3F81120BDF8083014
:1007D0009342A8BF1346ADF82630BDF826301A461E
:1007E000019801F0FDFEBDF82630019A13440193F3
:1007F000BDF80820BDF82630D31AADF80830BDF892
:100800003620BDF826301344ADF83630079BD3F8B8
:1008100011309AB2BDF8163013449BB2ADF81630C1
:100820000023ADF8303070E0079BD3F80910BDF815
:10083000302013461B019B1A0B440693069B1B7822
:100840009BB2BDF80820934228BF1346ADF826306E
:10085000BDF826301A460699019801F0C1FEBDF890
:100860002630019A13440193BDF80820BDF82630C4
:10087000D31AADF80830BDF83620BDF82630134441
:10088000ADF83630069B1B789AB2BDF8163013448B
:100890009BB2ADF81630069BD3F80730002B2FD053
:1008A000069BD3F80710069BD3F80B20BDF8083041
:1008B0009342A8BF1346ADF82630BDF826301A463D
:1008C000019801F08DFEBDF82630019A1344019382
:1008D000BDF80820BDF82630D31AADF80830BDF8B1
:1008E0003620BDF826301344ADF83630069BD3F8D9
:1008F0000B309AB2BDF8163013449BB2ADF81630E7
:10090000BDF830300133ADF83030079B1B799BB216
:10091000BDF830209A4287D3BDF832300133ADF8AC
:1009200032300A9BD3F80920BDF834301B01134440
:100930001B799BB2BDF832209A42FFF4FEAEBDF89F
:1009400034300133ADF834300A9B1B799BB2BDF8CB
:1009500034209A42FFF4ADAE0B9B0233BDF8162053
:100960001A80BDF8363018460FB05DF804FB82B02F
:100970000346ADF80630BDF806301B0A9BB2184698
:1009800002B0704782B00346ADF80630BDF80630BD
:10099000DBB2184602B0704700B589B003900291EF
:1009A00001920093029B5B889BB21846FFF7EAFF17
:1009B0000690029B5B889BB21846FFF7D8FF034660
:1009C000022B16D0032B27D0012B40F09D80039BD8
:1009D0001A68019B1A60039B1B681B789AB2009BE4
:1009E0001B88934228BF13469AB2009B1A800123AA
:1009F0008BE0039B1A69019B1A60069BD9B2019B8D
:100A00001A68009B1B880398FFF704FE03461A46EA
:100A1000009B1A80012378E0039B1B690593069BCA
:100A2000002B17D1059B002242F009029A70002288
:100A300042F00402DA70059B04221A70059B1B78B1
:100A40009AB2009B1B88934228BF13469AB2009B20
:100A50001A8051E0069B013B0493039B9B68002B8B
:100A600001D1002351E0039BDB68049A9A4201DB29
:100A700000234AE0029B9B889BB240F209429342CA
:100A800001D0002341E0039B9A68049B9B00134420
:100A90001B68184601F0AFFD03460133DBB25B0073
:100AA000DAB2059B1A70059B1B789AB2009B1B88D3
:100AB000934228BF13469AB2009B1A8000230793E3
:100AC00012E0039B9A68049B9B0013441A68079BDF
:100AD00013441B7899B2059A079B5B0013440A469E
:100AE0005A80079B01330793009B1B885B089BB2CE
:100AF000013B079A9A42E4DB059B03225A70019B53
:100B0000059A1A60012300E00023184609B05DF839
:100B100004FB00B585B00390029101920093029B03
:100B20001B78002B04D1029B5B889BB27F2B01D9E1
:100B3000002318E0029B5B889BB2DAB2039B9A7594
:100B4000039BD3F8DC3093F83030002B0AD0039BA2
:100B5000D3F8DC305B68029A528892B2D2B2114666
:100B6000039898470123184605B05DF804FB00B5CB
:100B700089B003900291019200934FF0FF330693E6
:100B8000029B5B889BB2002B24D00023079315E0C7
:100B9000029B5B8899B2039B5868079A13465B00D7
:100BA00013449B00134403445B799BB2994202D1E6
:100BB000079B069309E0079B01330793039B1B6880
:100BC0005B7C1A46079B9342E2D3069B002B01DA1B
:100BD00000236AE0069BDBB20133DAB2039BDA75CD
:100BE000039BDB7D002B2AD0039B5968039BDB7D95
:100BF0001A4613465B0013449B0013440D3B0B4401
:100C000005930023079314E0059BD3F80920079B65
:100C10001B0113441B68002B08D0059BD3F8092047
:100C2000079B1B0113441B6800221A70079B0133AA
:100C30000793059B1B791A46079B9342E4D3039BBA
:100C4000D3F8DC30DB6803989847039BD3F8C830AF
:100C5000002B29D00023079308E0039B079A093251
:100C6000002143F83210079B01330793079B032BA6
:100C7000F3D90023079314E0039B079A323253F809
:100C80002230002B0AD0039B079A323253F82230CD
:100C9000029A528892B2114603989847079B0133F3
:100CA0000793079B032BE7D90123184609B05DF88A
:100CB00004FB86B00390029101920093009B1B8875
:100CC000012B02D9009B01221A80039BDB7D002BA4
:100CD00012D0039B5968039BDB7D1A4613465B00C9
:100CE00013449B0013440D3B0B440593019B1B686D
:100CF000059A52791A7003E0019B1B6800221A7052
:100D00000123184606B0704700B587B003900291E2
:100D100001920093039B5968039BDB7D1A4613469F
:100D20005B0013449B0013440D3B0B440593029B53
:100D30009B889AB2059B1B799BB29A4201D30023F0
:100D400039E0059BD3F80920029B9B889BB21B01CD
:100D500013440493029B5B889AB2049B1B799BB259
:100D60009A4201D3002326E0049B1B68002B07D086
:100D7000029B5B889AB2049B1B68D2B21A7006E091
:100D8000029B5B889BB2002B01D0002313E0039BE6
:100D9000D3F8D830002B0AD0039BD3F8D830029A6E
:100DA000928891B2029A528892B203989847009B17
:100DB00000221A800123184607B05DF804FB86B0B4
:100DC0000390029101920093039B5968039BDB7D82
:100DD0001A4613465B0013449B0013440D3B0B441F
:100DE0000593029B9B889AB2059B1B799BB29A4202
:100DF00001D3002317E0009B01221A80059BD3F842
:100E00000920029B9B889BB21B0113441B6804931F
:100E1000049B002B02D0049B1A7800E00022019B67
:100E20001B681A700123184606B0704784B00390FF
:100E3000029101920093009B1B88022B02D9009B18
:100E400002221A80019B1B6800221A70019B1B68FA
:100E5000013300221A700123184604B0704784B091
:100E60000390029101920093009B1B88022B02D9F0
:100E7000009B02221A80019B1B6800221A70019BB2
:100E80001B68013300221A700123184604B0704712
:100E900000B585B00390029101920093009B1B88DE
:100EA000022B02D9009B02221A80029B9B889BB2D4
:100EB000DBB219460398FFF757FB0346002B14BF1C
:100EC00001230023DAB2019B1B681A70019B1B6887
:100ED000013300221A700123184605B05DF804FBA7
:100EE00000B585B00390029101920093029B9B880C
:100EF0009BB2DBB2012219460398FFF71EFB0123C8
:100F0000184605B05DF804FB00B585B0039002916A
:100F100001920093029B9B889BB2DBB20022194690
:100F20000398FFF70AFB0123184605B05DF804FBA0
:100F300010B586B0039002910192009300230593AF
:100F4000029B5B78092B2BD801A252F823F000BF3B
:100F50009B0F0008790F0008A10F0008790F000807
:100F6000A10F0008830F0008950F0008A10F0008CB
:100F70008F0F0008890F0008029B5B88029B5B882B
:100F80000EE00F4B05930BE00E4B059308E00E4B64
:100F9000059305E00D4B059302E00D4B059300BF53
:100FA000059B002B01D1002306E0059C009B019AC4
:100FB00002990398A0470346184606B010BD00BF2B
:100FC000130B00086F0B0008B30C00089909000808
:100FD0002D0E000810B586B0039002910192009387
:100FE00000230593029B5B780B2B24D801A252F8B7
:100FF00023F000BF31100008371000083710000838
:1010000037100008371000083710000837100008A4
:1010100037100008371000083710000825100008A6
:101020002B1000080B4B059305E00B4B059302E0DA
:101030000A4B059300BF059B002B01D1002306E05E
:10104000059C009B019A02990398A0470346184605
:1010500006B010BDBF0D0008090D00085F0E0008A6
:1010600010B586B00390029101920093002305937E
:10107000029B5B780C2B33D801A252F823F000BFFF
:10108000D5100008B5100008E1100008C5100008D0
:10109000E1100008E1100008E1100008E11000086C
:1010A000E1100008E1100008E1100008E11000085C
:1010B000E1100008029B5B889BB2002B0DD1104B06
:1010C00005930AE0029B5B889BB2002B07D10D4B76
:1010D000059304E00C4B059302E000BF00E000BF65
:1010E000059B002B01D1002306E0059C009B019A83
:1010F00002990398A0470346184606B010BD00BFEA
:10110000090F0008E10E0008910E000800B585B037
:101110000390029101920093029B1B7803F06003FD
:10112000002B01D0002322E0029B1B7803F01F0359
:10113000012B0BD0022B11D0002B17D1009B019A51
:1011400002990398FFF7F4FE034610E0009B019A12
:1011500002990398FFF73EFF034608E0009B019ABF
:1011600002990398FFF77CFF034600E0002318462E
:1011700005B05DF804FB00B583B0019001220021A9
:101180000198FFF7DAF9019B002283F82C2000BFB9
:1011900003B05DF804FB82B00346ADF806300B46A1
:1011A000ADF8043013468DF80330BDF80620BDF8C5
:1011B00004309A4210D2BDF80630002B0CD0BDF896
:1011C00006309DF8032093FBF2F102FB01F29B1A1B
:1011D000002B01D1012300E00023184602B0704724
:1011E00086B0039001930B468DF80B3013468DF8B3
:1011F0000A300023059322E0039B059A093253F835
:101200003230002B03D0059B0133059317E0039A7E
:10121000059B0933DB0013449DF80B201A71039AD8
:10122000059B0933DB0013449DF80A205A71039B88
:10123000059A0932019943F83210002304E0059B16
:10124000032BD9DD4FF0FF33184606B0704700B5C9
:1012500083B00190019B1B68DB799AB2019B9B8F45
:101260009A4220D2019B9A6B019B1B68DB799BB24F
:1012700000210198FFF72DF9019B022283F82C2011
:10128000019B9B6B019A1268D2791A44019B9A6365
:10129000019B9A8F019B1B68DB799BB2D31A9AB290
:1012A000019B9A871CE0019B9A6B019B9B8F0021FD
:1012B0000198FFF70EF9019B93F84430002B01D001
:1012C000022200E00322019B83F82C20019B0022D4
:1012D00083F84420019B00229A87019B00229A6395
:1012E00000BF03B05DF804FB00B585B00190019B21
:1012F000DB8E1A46019B9B8FD31A019A1268D27912
:101300009342A8BF1346ADF80E30019B9B6B019A28
:10131000928F1A44BDF80E3000210198FFF7F3F8C0
:101320000346ADF80C30BDF80C20BDF80E309A42E3
:1013300005D00198FFF71FFF4FF0FF3309E0019B35
:101340009A8FBDF80C3013449AB2019B9A87BDF86E
:101350000E30184605B05DF804FB10B588B0039058
:10136000029100230693039B4833059300230793C0
:1013700036E0079BDB00059A13441B68002B33D033
:10138000029B1A78079BDB0005990B445B7913409D
:10139000DAB2079BDB0005990B441B799A421CD1FA
:1013A000079BDB00059A13441C68039B03F138027A
:1013B000039B03F13C01039B403300930B460299CE
:1013C0000398A04703460693069B012B02D0069B79
:1013D000002B02D1069BDBB211E0079B0133079380
:1013E000079B032BC5DD00E000BF039B03F1380220
:1013F000039B3C3302990398FFF788FE0346184687
:1014000008B010BD00B583B001900091019B1A692E
:10141000019B9A63009BDB889AB2019B9A87009993
:101420000198FFF79AFF0346002B23D0009BDB882F
:101430009BB2002B13D0019B988F009BDB8899B245
:10144000019B1B68DB791A46FFF7A5FE03461A4687
:10145000019B83F844200198FFF7F9FE0DE000237B
:10146000002200210198FFF734F8019B042283F841
:101470002C2002E00198FFF77EFE00BF03B05DF86C
:1014800004FB00B583B001900091009BDB889AB209
:10149000019B9B8A9A4203D90198FFF76CFE1DE0DD
:1014A000019B1A69019B9A63019B00229A87009B0A
:1014B000DB889AB2019B1B68DB799BB29A4204D904
:1014C000019B052283F82C2003E0019B062283F870
:1014D0002C20002200210198FFF75AF803B05DF894
:1014E00004FB00B585B001900B468DF80330019BDD
:1014F00030330393019B00221A64012200210198DA
:10150000FFF746F8039BDB889BB2002B04D10399BD
:101510000198FFF777FF0DE0039B1B785BB2002B70
:1015200004DA03990198FFF76DFF03E0039901982E
:10153000FFF7A7FF00BF05B05DF804FB00B583B05F
:1015400001900B468DF80330019B93F82C30062B4D
:1015500019D0072B35D0052B4CD10198FFF7C4FECD
:101560000346002B4ADB019BDB8E1A46019B9B8FB7
:10157000D31A019A1268D279934241DC019B062268
:1015800083F82C203CE00198FFF7AEFE0346002BC9
:1015900038DB019B303319460198FFF7DEFE034626
:1015A000002B0AD00023002200210198FEF791FFB2
:1015B000019B042283F82C2025E00198FFF7DBFD36
:1015C00021E00023002200210198FEF79CFF019BEF
:1015D000002283F82C20019B1B6C002B06D0019B62
:1015E0001B6C019A3032114601989847019B0022EA
:1015F0001A6408E00198FFF7BEFD04E000BF02E0B6
:1016000000BF00E000BF00BF03B05DF804FB00B501
:1016100085B001900B468DF80330019B3033039366
:10162000019B93F82C30032B07D0042B0FD0022BF7
:1016300030D10198FFF70BFE2FE0019B072283F8C2
:101640002C20002200210198FEF7A2FF25E0019B3B
:101650001B6C002B06D0019B1B6C019A303211468B
:1016600001989847039B1B78002B0ED1039B5B7856
:10167000052B0AD1019BD3F8DC305B68039A5288B2
:1016800092B2D2B2114601989847019B002283F88A
:101690002C2002E00198FFF76EFD00BF05B05DF859
:1016A00004FB82B001900B468DF80330019BD3F808
:1016B000DC30DB6A03F500631B6823F4FE639DF8EE
:1016C000032012011146019AD2F8DC20D26A02F5F9
:1016D00000620B43136000BF02B0704784B00190FA
:1016E000084611461A4603468DF803300B468DF81E
:1016F00002301346ADF800309DF8033023F07F032D
:101700008DF80F309DF8033003F07F038DF8033020
:101710009DF80330002B40F09880BDF800303F2B3F
:1017200009D9019BD3F8DC30DB6A03F510631A4654
:101730000023136024E0BDF800301F2B09D9019B62
:10174000D3F8DC30DB6A03F510631A46012313601B
:1017500016E0BDF800300F2B09D9019BD3F8DC301F
:10176000DB6A03F510631A460223136008E0019B4D
:10177000D3F8DC30DB6A03F510631A4603231360E9
:10178000BDF80030019AD2F8DC20D26A02F511626D
:1017900003F07F031360019BD3F8DC30DB6A03F5B1
:1017A00010631B68019AD2F8DC20D26A02F510623D
:1017B00043F008431360BDF8003003F07F0343F0AB
:1017C000005343F400231A46019BC3F8E820019B11
:1017D000D3F8DC30DB6A03F531631A46019BD3F89A
:1017E000E8301360019BD3F8DC30DB6A03F530632B
:1017F0001B68019AD2F8DC20D26A02F5306243F00D
:1018000008431360BDF800309B089BB21B04019A8B
:10181000D2F8DC20528E1A43019BD3F8DC30DB6A0D
:1018200028331A60019BB3F8E020BDF800309B0814
:101830009BB213449AB2019BA3F8E020019BB3F83A
:10184000E020019BA3F8E220BFE09DF80F30002BC1
:1018500065D0BDF800309B089BB21B04019AB2F81A
:10186000E0201A439DF8033040339B001946019B4A
:10187000D3F8DC30DB6A0B441A60019BB3F8E0203C
:10188000BDF800309B089BB213449AB2019BA3F8A9
:10189000E020BDF800309DF8032052011146019A66
:1018A000D2F8DC20D26A0A4402F5116203F07F0309
:1018B00013609DF8033048335B011A46019BD3F84F
:1018C000DC30DB6A13441A689DF802309B0443F055
:1018D000184343F400439DF8031089051943BDF8EC
:1018E00000300B4318469DF8033048335B0119461E
:1018F000019BD3F8DC30DB6A0B44194642EA000353
:101900000B60049B002B0AD09DF80320019913461D
:101910005B0013449B000B446833049A1A609DF8E3
:101920000F30002B51D1BDF8003003F07F0343F49A
:1019300000239DF803201946019B3A3243F82210F8
:101940009DF803209DF803305B011946019BD3F8F5
:10195000DC30DB6A0B4403F531631946019B3A32F4
:1019600053F822300B609DF8033058335B011A4660
:10197000019BD3F8DC30DB6A13441A689DF802300F
:101980009B0443F0144343F40043BDF800100B43A1
:1019900018469DF8033058335B011946019BD3F874
:1019A000DC30DB6A0B44194642EA00030B60049BFF
:1019B000002B0AD09DF80320019913465B001344C5
:1019C0009B000B446C33049A1A6004B0704784B0D7
:1019D0000190019BB3F8E220019BA3F8E0200123D2
:1019E000039346E0039B58335B011A46019BD3F8EF
:1019F000DC30DB6A13441B68002B15DA039B583379
:101A00005B011A46019BD3F8DC30DB6A13441B6888
:101A1000039A583252011146019AD2F8DC20D26A58
:101A20000A4443F080431360039B48335B011A462A
:101A3000019BD3F8DC30DB6A13441B68002B15DAFA
:101A4000039B48335B011A46019BD3F8DC30DB6A09
:101A500013441B68039A483252011146019AD2F886
:101A6000DC20D26A0A4443F080431360039B0133B5
:101A70000393039B032BB5DD019BD3F8DC30DB6ABA
:101A800010331A464FF48663136000BF04B07047EA
:101A900082B001900B468DF8033013468DF802306A
:101AA0009DF80330002B34D19DF80230002B18D064
:101AB0009DF8033048335B011A46019BD3F8DC30B4
:101AC000DB6A13441B689DF803204832520111461B
:101AD000019AD2F8DC20D26A0A4443F4001313605E
:101AE00017E09DF8033048335B011A46019BD3F899
:101AF000DC30DB6A13441B689DF803204832520136
:101B00001146019AD2F8DC20D26A0A4423F4001369
:101B100013609DF90330002B53DA9DF8033003F076
:101B20007F038DF803309DF80230002B18D09DF80C
:101B3000033048335B011A46019BD3F8DC30DB6A83
:101B400013441B689DF80320483252011146019A44
:101B5000D2F8DC20D26A0A4443F4001313607DE01B
:101B60009DF8033048335B011A46019BD3F8DC3003
:101B7000DB6A13441B689DF803204832520111466A
:101B8000019AD2F8DC20D26A0A4423F400131360CD
:101B90009DF8033048335B011A46019BD3F8DC30D3
:101BA000DB6A13441B689DF803204832520111463A
:101BB000019AD2F8DC20D26A0A4443F080531360C1
:101BC0004CE09DF80230002B18D09DF803305833BC
:101BD0005B011A46019BD3F8DC30DB6A13441B68B7
:101BE0009DF80320583252011146019AD2F8DC20A8
:101BF000D26A0A4443F4001313602FE09DF80330C7
:101C000058335B011A46019BD3F8DC30DB6A13447E
:101C10001B689DF80320583252011146019AD2F8F0
:101C2000DC20D26A0A4423F4001313609DF80330C9
:101C300058335B011A46019BD3F8DC30DB6A13444E
:101C40001B689DF80320583252011146019AD2F8C0
:101C5000DC20D26A0A4443F08053136000BF02B014
:101C6000704782B001900B468DF803309DF9033028
:101C7000002B14DA9DF8033003F07F0348335B0137
:101C80001A46019BD3F8DC30DB6A13441B6803F46B
:101C90000013002B14BF01230023DBB211E09DF8D9
:101CA000033058335B011A46019BD3F8DC30DB6A02
:101CB00013441B6803F40013002B14BF01230023FB
:101CC000DBB2184602B0704782B001900B468DF827
:101CD000033013468DF802309DF90330002B3DDBB5
:101CE0009DF80330019A13449DF8022083F8E42004
:101CF0009DF80230002B18D09DF8033058335B015B
:101D00001A46019BD3F8DC30DB6A13441B689DF84C
:101D10000320583252011146019AD2F8DC20D26ACF
:101D20000A4443F00063136019E09DF80330583310
:101D30005B011A46019BD3F8DC30DB6A13441B6855
:101D40009DF80320583252011146019AD2F8DC2046
:101D5000D26A0A4443F08063136000E000BF02B01F
:101D6000704786B0039001921A460B468DF80B30EF
:101D70001346ADF80830019B05939DF80B3003F036
:101D80007F038DF80B309DF80B305B011A46039BE7
:101D9000D3F8DC30DB6A134403F511631B6803F4EA
:101DA0000023002B01D0002342E0BDF8083043F4AB
:101DB00000229DF80B305B011946039BD3F8DC3001
:101DC000DB6A0B4403F511631A609DF80B3048334E
:101DD0005B011A46039BD3F8DC30DB6A13441B68B3
:101DE0009DF80B20483252011146039AD2F8DC20AC
:101DF000D26A0A4443F004431360BDF808300493E8
:101E000011E0059B1A1D05929DF80B20013212036B
:101E10001146039AD2F8DC20D26A0A441B68136088
:101E2000049B043B0493049B002BEADCBDF80830C0
:101E3000184606B0704700B589B0039001921A4663
:101E40000B468DF80B301346ADF80830019B069316
:101E5000039BB3F8F830BDF80820934228BF13461F
:101E6000ADF80830BDF80830079316E0039BD3F8AF
:101E7000DC30DB6A03F580531946069B1A1D069277
:101E80000A681A60039BB3F8F830043B9AB2039BCC
:101E9000A3F8F820079B043B0793079B032BE5DC83
:101EA000079B002B1FD0039BD3F8DC30DB6A03F5C4
:101EB00080531B680593039BB3F8F830032B04D8B9
:101EC000039B0022A3F8F82007E0039BB3F8F83047
:101ED000043B9AB2039BA3F8F820079A05AB194676
:101EE000069800F07DFBBDF80830184609B05DF893
:101EF00004FB84B001900091009B48335B011A46BB
:101F0000019BD3F8DC30DB6A13441B68009A48322B
:101F100052011146019AD2F8DC20D26A0A4443F0F9
:101F20000063136000BF009B5B011A46019BD3F85E
:101F3000DC30DB6A134403F608131B6803F040032C
:101F4000002BF0D0009B48335B011A46019BD3F86D
:101F5000DC30DB6A13441B689B0D03F00F03039313
:101F600000BF019BD3F8DC30DB6A10331B68002B09
:101F7000F7DA039B9B01019AD2F8DC20D26A103277
:101F800043F020031360009B5B011A46019BD3F8CA
:101F9000DC30DB6A134403F511631A460023136037
:101FA00000BF019BD3F8DC30DB6A10331B6803F001
:101FB0002003002BF5D100BF04B0704700B589B0F5
:101FC0000190019BD3F8DC30DB6A14331B68059366
:101FD000059B03F40053002B13D0019BD3F8DC3096
:101FE000DB6A14331A464FF400531360019BD3F895
:101FF000DC305A8E019BA3F8E0200198FEF714FA1A
:1020000082E10023079337E0079B5B011A46019B9F
:10201000D3F8DC30DB6A134403F608131B6803F0C3
:102020000103002B25D00199079A13465B00134446
:102030009B000B4468331B68002B0DD00199079A55
:1020400013465B0013449B000B4468331B68079ADC
:10205000D2B2114601989847079B5B011A46019B33
:10206000D3F8DC30DB6A134403F608131A46012365
:102070001360079B01330793079B032BC4DD059B6C
:1020800003F01003002B00F0E080019BD3F8DC305C
:10209000DB6A20331B680493049B03F4F01303935F
:1020A000049BDBB203F00F038DF80B30039BB3F5F9
:1020B000002F0ED19DF80B20019913465B001344AD
:1020C0009B000B4470331B689DF80B201146019850
:1020D0009847039BB3F5C02F03D0039BB3F5002FA4
:1020E00037D19DF80B209DF80B305B011946019B01
:1020F000D3F8DC30DB6A0B4403F531631946019BEE
:102100003A3253F822300B609DF80B3058335B01A4
:102110001A46019BD3F8DC30DB6A13441B689DF838
:102120000B2001990A4492F8E420002A02D04FF0D3
:10213000084201E04FF004429DF80B10583149016C
:1021400008460199D1F8DC10C96A014413430B60B9
:10215000DAE0039BB3F5802F04D0039BB3F5402F47
:1021600040F0D180039BB3F5402F03D102238DF8BB
:102170001B3002E001238DF81B309DF81B30022B31
:1021800015D19DF80B305B011A46019BD3F8DC306A
:10219000DB6A134403F511631B6803F40023002B6F
:1021A00005D09DF80B3019460198FFF7A2FE049B5D
:1021B0001B099BB2C3F30A039AB2019BA3F8F82050
:1021C0009DF81B30022B09D1019B03F130029DF8D1
:1021D0000B1008230198FFF72EFE1EE09DF80B2040
:1021E0009DF81B00019913465B00134403441A3306
:1021F00051F82330002B10D09DF80B209DF81B00C8
:10220000019913465B00134403441A3351F82330F9
:102210009DF80B201146019898470023079309E089
:10222000019BD3F8DC30DB6A03F580531B68079B06
:1022300004330793019BB3F8F8301A46079B934287
:10224000EEDB019B0022A3F8F820059B03F400635A
:10225000002B0FD0019B1B6A002B02D0019B1B6A35
:102260009847019BD3F8DC30DB6A14331A464FF4ED
:1022700000631360059B002B0FDA019B5B6A002B48
:1022800002D0019B5B6A9847019BD3F8DC30DB6A84
:1022900014331A464FF000431360059B03F0080304
:1022A000002B0ED0019B9B6A002B02D0019B9B6AE6
:1022B0009847019BD3F8DC30DB6A14331A460823B5
:1022C0001360019B9B6A002B0ED0019BD3F8DC307E
:1022D000DB6A18331B68019AD2F8DC20D26A183204
:1022E00043F0080313600FE0019BD3F8DC30DB6A96
:1022F00018331B68019AD2F8DC20D26A183223F016
:102300000803136000E000BF09B05DF804FB82B071
:1023100001900B468DF803309DF80330002B10D050
:10232000019BD3F8DC30DB6A03F604031B68019AD7
:10233000D2F8DC20D26A02F6040243F002031360F2
:102340000FE0019BD3F8DC30DB6A03F604031B6863
:10235000019AD2F8DC20D26A02F6040223F00203CA
:10236000136000BF02B0704708B540F28760FDF708
:1023700067FE2E4B1B682D4A43F04003136000BFDD
:102380002B4B1B68002BFBDA294B1B68284A43F0B8
:102390000103136000BF264B1B6803F00103002BF1
:1023A000F9D1244B1B68B3F5005F06D3224B1B68A1
:1023B000214A43F40413136005E01F4B1B681E4AB7
:1023C00043F4102313601D4B1B681C4A23F00203C7
:1023D0001360164B1B68154A43F0804343F4705357
:1023E0001360174B02221A60164B1B68154A43F004
:1023F00003031360144B00221A608022134B1A60EF
:102400008022134BA3F8E020124B1B68114A43F0C3
:1024100001031360104B114A1A60114B0F221A600E
:10242000104B01221A600A4B184608BD0C000050E0
:10243000100000503C0000503800005004080050CC
:102440001400005000080050000E005024000050FE
:10245000F0000020080000501800005010280480F0
:102460001C0800501008005082B0104B0193104B14
:10247000009307E0019A131D0193009B191D009121
:1024800012681A60009B0B4A9342F3D30A4B0093E5
:1024900005E0009B00221A60009B04330093009B20
:1024A000064A9342F5D300BF02B0704720270008C8
:1024B000000000200C0000200C000020EC01002097
:1024C00008B5FFF7D1FF064BD3F88830044A43F430
:1024D0007003C2F8883000F005F8FDF7BBFEFEE798
:1024E00000ED00E00D4B01221A600C4B00229A60B7
:1024F0000A4B1B68094A23F0847323F4803313606A
:10250000064B074A5A60054B1B68044A23F4802394
:102510001360024B0022DA6000BF704700380240AF
:102520001030002408B5FFF7DDFF294B1B68284A4F
:1025300043F48033136000BF254B1B6803F4003362
:10254000002BF9D0224B1B6C214A43F080531364BB
:10255000204B1B681F4A43F4804313601C4B1C4AEA
:102560009B6893601A4B9B68194A43F4A05393608D
:10257000174B9B68164A43F400439360144B164A6A
:102580005A60134B1B68124A43F08073136000BFFC
:102590000F4B1B6803F00073002BF9D00F4B40F278
:1025A00005721A600A4B9B68094A23F00303936083
:1025B000074B9B68064A43F00203936000BF044B3D
:1025C0009B6803F00803082BF9D100BF08BD00BFCA
:1025D000003802400070004008544007003C0240B0
:1025E00010B5431E0A44914200D110BD11F8014BB1
:1025F00003F8014FF7E7034613F8012B002AFBD13C
:10260000181A013870470000120100020200004051
:102610008304405700020102030100006675726BDB
:10262000616E2E73706163650000000053544D337A
:1026300032205669727475616C20434F4D20506F83
:102640007274000031000000070583031000FF00D2
:10265000000000000000000007050102400001002A
:102660000000000000000007058202400001000099
:1026700000000000000000000524001001052401F6
:1026800000010424020005240600010009040000E2
:102690000102020100482600087826000813000005
:1026A0000000000009040100020A00000058260092
:1026B0000800000000000000000000000000000012
:1026C00001000000000000008C260008000000004F
:1026D0000100000000000000A4260008090200001C
:1026E0000201008032BC26000800000069230008B7
:1026F000A3160008DD160008CF190008911A00087B
:10270000C91C0008631C0008631D0008371E000870
:10271000BD1F00080F2300080000005001008000CA
:0C2720001C2600082C2600084426000897
:04000005080024C10A
:00000001FF
