:020000040800F2
:100000000000022021320008C3010008C3010008DB
:10001000C3010008C3010008C3010008000000007C
:10002000000000000000000000000000C301000804
:10003000C301000800000000C3010008C50100085A
:1000400000000000000000000000000000000000B0
:1000500000000000000000000000000000000000A0
:100060000000000000000000000000000000000090
:100070000000000000000000000000000000000080
:100080000000000000000000000000000000000070
:100090000000000000000000000000000000000060
:1000A0000000000000000000000000000000000050
:1000B00049020008000000000000000000000000ED
:1000C0000000000000000000000000000000000030
:1000D0000000000000000000000000000000000020
:1000E0000000000000000000000000000000000010
:1000F0000000000000000000000000000000000000
:1001000000000000000000000000000000000000EF
:1001100000000000000000000000000000000000DF
:1001200000000000000000000000000000000000CF
:1001300000000000000000000000000000000000BF
:1001400000000000000000000000000000000000AF
:10015000000000000000000000000000000000009F
:10016000000000000000000000000000000000008F
:10017000000000000000000000000000000000007F
:100180000000000082B003468DF807309DF907306B
:10019000002B0CDB9DF8073003F01F0205499DF989
:1001A00007305B09012000FA02F241F8232000BF6A
:1001B00002B0704700E100E082B0019000BF02B0E1
:1001C0007047FEE708B51C4B1B7883F00103DBB2D8
:1001D000002B20D0194B1B789BB21B039AB2184BF3
:1001E0005A61164B1B78F02B06D10121154800F0FF
:1001F00085F8124B01221A70104B1B78082B03D183
:100200000E4B01221A7015E00C4B1B785B00DAB222
:100210000A4B1A700EE0084B1B78002B0AD0084BD3
:100220005B69064A127892B2120392B21146044AEE
:100230004B40536100BF08BDEF0000200C000020C0
:10024000000C0240D01B500010B54FF080434FF619
:10025000FE721A61234B1B78312B0BD0214B1B787C
:10026000322B07D01F4B1B78332B03D01D4B1B7831
:10027000342B1BD11C4B1B88312B02D91A4B00226B
:100280001A80194B1B881A46184B33F81220184B4A
:100290009A60174B5B68164A43F001035360124B98
:1002A0001B8801339AB2104B1A8018E00D4B1B7853
:1002B000352B14D10F4B1B681B039B080E4AA2FB66
:1002C00003235C0905F0F0F90346094A03FB04F334
:1002D0009360074B5B68064A43F00103536000BF1D
:1002E00010BD00BF300100208600002088000020E3
:1002F00000740040140000209F00EE0982B00190BD
:100300000B468DF803300F4B00221A600D4B0D4A3F
:100310001B6813600B4B1A689DF803305B0009499A
:1003200013430B60074A019B5360064B00229A60FF
:10033000044B1B68034A43F00103136000BF02B083
:10034000704700BF10E000E000B583B0019000915D
:10035000124B1B6C114A43F0010313644FF08042AF
:10036000019B013B93624FF08042009BD3624FF0B0
:100370008043DB684FF0804243F00103D3601C20D0
:10038000FFF700FF4FF080431B684FF0804243F0BF
:100390000103136000BF03B05DF804FB00380240A6
:1003A00084B00390029101920093029B5B78202B12
:1003B00003D0222B09D1012308E0009B1B88062BC8
:1003C00001D8002302E0012300E00023184604B016
:1003D0007047000000B585B003900B46ADF80A30B9
:1003E000104B0093402302220121039800F000FFEC
:1003F00000230093402302228221039800F0F8FE9C
:1004000000230093102303228321039800F0F0FEC1
:10041000054B7F222121039801F092FD00BF05B01A
:100420005DF804FB2D040008A103000830B585B079
:1004300001900B468DF803300123994A0121019860
:1004400000F011FF0346029300BF0123944A82216A
:10045000019800F0EEFE0346002BF6D0914B1B787E
:10046000002B48D1904B1B78002B22D18F4B1B784F
:10047000002B1ED08A4B1A788B4B1A708A4B1B7834
:10048000352B09D8884B1B78302B05D91722884982
:10049000019800F060FA0CE01F228649019800F0F4
:1004A0005AFA08228449019800F055FA7E4B00223E
:1004B0001A707E4B1B7883F00103DBB2002B0DD04A
:1004C000019800F011FA08227B49019800F043FAE4
:1004D000764B01221A70724B00221A70704B1B78F7
:1004E0000D2B08D16F4B1B780133DAB26D4B1A70AC
:1004F0006B4B00221A706B4B1B78012B40F0028172
:100500006E4B1B78052B15D86D4B1B78002B22D01A
:10051000634B1B780D2B1ED0684B1B781A46604B23
:100520001978684B9954654B1B780133DAB2634BE9
:100530001A7010E05A4B1B780D2B0CD05F4B002229
:100540001A7024226049019800F005FA08225A49DD
:10055000019800F000FA5A4B1B7883F00103DBB2DC
:10056000002B21D00F225949019800F0F4F90722FD
:100570005749019800F0D8F906225649019800F031
:10058000EAF902225449019800F0CEF908224A49BA
:10059000019800F0E0F94A4B01221A70474B002203
:1005A0001A703F4B00221A703D4B1B780D2B40F008
:1005B000A980424B1B78012B40F29880474B0022C8
:1005C0001A603E4B1B788DF80F303FE09DF80F30DE
:1005D000013B184605F078FA03460C461A462346B6
:1005E0004FF000003E4902F0EFFE04460D46334B4B
:1005F0001B781A469DF80F30D31A324AD35C303B31
:10060000184605F061FA02460B462046294605F0D9
:10061000C5FA03460C4625461C46304B1B68184657
:1006200005F042FA02460B462046294605F000F93D
:1006300003460C461846214605F088FD0246274B26
:100640001A609DF80F30013B8DF80F309DF80F3088
:10065000002BBBD1214B1A68224B1B689A420CD845
:10066000104B1B780133DAB20E4B1A70134B002279
:100670001A700B4B00221A7044E01A221A49019892
:1006800000F069F908220C49019800F064F9134B55
:100690004FF47A721A60094B00221A7032E000BFE0
:1006A000F00000208500002030010020EC00002038
:1006B000446300085C6300087C6300088400002039
:1006C000ED0000203401002088630008B0630008BA
:1006D000CC61000840010020D46100081000002017
:1006E0000000244018000020C0630008704B1B78F5
:1006F0000133DAB26E4B1A706E4B00221A706E4BD9
:1007000000221A706A4B1B78022B40F0CE80694B96
:100710001B78032B15D8694B1B78002B22D0664B16
:100720001B780D2B1ED0634B1B781A46624B197831
:10073000634B99545F4B1B780133DAB25D4B1A70EF
:1007400010E05D4B1B780D2B0CD05A4B00221A7019
:1007500024225C49019800F0FEF808225A490198C9
:1007600000F0F9F8554B1B7883F00103DBB2002B46
:100770000FD01F225549019800F0EDF80822524988
:10078000019800F0E8F84D4B01221A70494B002205
:100790001A70494B1B780D2B40F08780454B1B7816
:1007A000012B73D94A4B00221A60424B1B788DF8FB
:1007B0000E303FE09DF80E30013B184605F084F9FD
:1007C00003460C461A4623464FF00000414902F00A
:1007D000FBFD04460D46374B1B781A469DF80E303C
:1007E000D31A374AD35C303B184605F06DF9024600
:1007F0000B462046294605F0D1F903460C4625460E
:100800001C46334B1B68184605F04EF902460B4652
:100810002046294605F00CF803460C4618462146AA
:1008200005F094FC02462A4B1A609DF80E30013BFD
:100830008DF80E309DF80E30002BBBD1244B1B6879
:1008400040F6B83293420FD8234B5B6903F47042F1
:10085000214B5B69204953404B61204B0F221A709A
:100860001F4B01221A7020E01A221E49019800F045
:1008700072F808221449019800F06DF8144B4FF4F7
:10088000FA621A600B4B00221A700EE0124B5B6981
:1008900003F47042104B5B690F4953404B610F4B9F
:1008A0000F221A700E4B01221A7000BF05B030BD26
:1008B0008500002084000020F0000020EE000020D1
:1008C0003C010020886300087C630008DC630008AA
:1008D0001400002000002440000C02400C00002006
:1008E000EF000020C063000800B583B0019000BF96
:1008F00036230B4A8221019800F09BFC0346002B13
:10090000F6D000BF2323074A8221019800F091FC12
:100910000346002BF6D000BF03B05DF804FB00BF18
:10092000E86200082063000800B585B003900291DA
:1009300013468DF8073000BF9DF807309BB2029A2E
:100940008221039800F075FC0346002BF4D000BF11
:1009500005B05DF804FB00B585B003900291134625
:100960008DF8073000BF9DF807309BB2029A8221B4
:10097000039800F05EFC0346002BF4D000BF05B0E6
:100980005DF804FB30B597B002F07CFC0121A8486B
:10099000FFF7B4FCA74B1B6BA64A43F00803136395
:1009A000A54B1B68A44A23F07F431360A24B1B682E
:1009B000A14A43F0AA4313609F4B5B699E4A43F4EC
:1009C000704353619B4B1B6B9A4A43F001031363C3
:1009D000984B5B6B974A43F080035363974B1B68BC
:1009E000964A23F073731360944B1B68934A23F069
:1009F00003031360914B1B68904A43F40023136078
:100A00008E4B1B688D4A43F4000313608B4B1B68AD
:100A10008A4A43F000731360884B5B6A874A43F04D
:100A2000A0035362854B5B6A844A43F420435362BC
:100A3000824B5B6A814A43F4202353627D4B1B6BDC
:100A40007C4A43F0010313637C4B1B687B4A23F40D
:100A500040731360794B1B68784A43F4407313600A
:100A6000744B1B6C734A43F000531364744B1B6844
:100A7000734A43F001031360714B714A1B681360A2
:100A80006F4B1B686E4A43F0040313606C4B1B688A
:100A90006B4A43F038031360694B40F6FF729A606B
:100AA000674B5B68664A43F00103536080230293FF
:100AB000644B019303230093634B644A6449654884
:100AC00000F01EFB0C9064490C9800F028FC634B6E
:100AD0001B681593002314932EE0149BC3F10503A8
:100AE000184604F0F1FF03460C461A4623464FF021
:100AF00000005B4902F068FC03460C46184621469C
:100B000005F024FB03460693159A069BB2FBF3F30C
:100B1000DBB23033D9B2534A149B13440A461A70DD
:100B2000159B069AB3FBF2F2069901FB02F29B1A9F
:100B30001593149B01331493149B052BCDDD0C9856
:100B400000F049FB484B1B78002B00D1F7E700BFB2
:100B5000464B1B78312B5FD10D2245490C98FFF78E
:100B6000E3FE0023139353E0424B1B6840F6B97237
:100B700002FB03F307EE903AF8EE677A9FED3E7AB8
:100B8000C7EE876A16EE900A04F0B0FF04460D46E1
:100B9000139B07EE903AF8EEE77A9FED387A67EE0E
:100BA000877A17EE900A04F0A1FF02460B46104622
:100BB000194602F0C5FB4FF00002314B04F038FE3D
:100BC00002460B462046294604F0E8FF03460C4641
:100BD000184621464FF000024FF0804305F008F917
:100BE00003460C46184621464FF00002254B04F000
:100BF0001FFE03460C461846214605F0A7FA034699
:100C000099B2214A139B22F81310139B01331393BB
:100C1000139B312BA8DD11E1144B1B78322B67D1CC
:100C20000F221A490C98FFF77FFE0023129337E03A
:100C300080DE800200380240000C024000000240CA
:100C4000007400404801002000000020D862000825
:100C50008C61000814640008D50300081800002007
:100C60000000244040010020EF000020300100205F
:100C7000D86100081400002000803B45FDAD003E17
:100C80000000F03F0080514088000020E86100082B
:100C90006C4A129B462122F81310129B01331293C7
:100CA000129B182BF4DD192311931DE0664B1B6872
:100CB00040F6B97202FB03F307EE903AB8EE677A9A
:100CC000DFED626AC7EE267A9FED617A77EE877A6A
:100CD000FCEEE77A17EE903A99B25A4A119B22F845
:100CE0001310119B01331193119B312BDEDDA5E015
:100CF000584B1B78332B38D1112257490C98FFF7EA
:100D000013FE514B1B6840F6B97202FB03F307EE6A
:100D1000903AF8EE677ADFED4D6A87EEA67ADFED5E
:100D20004F6AC7EE267ACDED0A7A0023109318E0B9
:100D3000109B07EE903AB8EEE77ADDED0A7A67EE9F
:100D4000277A9FED437A77EE877AFCEEE77A17EE03
:100D5000903A99B23B4A109B22F81310109B013332
:100D60001093109B312BE3DD68E03A4B1B78342B5A
:100D70005BD113223A490C98FFF7D6FD324B1B6822
:100D800040F6B97202FB03F307EE903AB8EE677AC9
:100D9000DFED2E6AC7EE267A37EEA77ADFED2F6AEF
:100DA000C7EE267ACDED0B7A00230F9318E00F9B48
:100DB00007EE903AB8EEE77ADDED0B7A67EE277A28
:100DC0009FED237A77EE877AFCEEE77A17EE903A7A
:100DD00099B21C4A0F9B22F813100F9B01330F93FB
:100DE0000F9B182BE3DD19230E931AE00E9B07EEE1
:100DF000903AB8EEE77ADDED0B7A67EE277A9FED51
:100E0000147A77EE877A0E9BC3F13203FCEEE77A11
:100E100017EE902A91B20B4A22F813100E9B013B59
:100E20000E930E9B002BE1DA08E00A4B1B78352B62
:100E300004D10F220B490C98FFF776FD0023ADF883
:100E4000363020E1880000201400002000803B455F
:100E500000008C4230010020F86100080000484288
:100E60000C62000820620008BDF836309A4A32F859
:100E70001330ADF81E30BDF81E30984AA2FB032394
:100E80009B099BB2DBB28DF817309DF817303033D9
:100E9000DBB28DF81730BDF81E30904AA2FB03126A
:100EA00092094FF47A7101FB02F29B1AADF81E30E1
:100EB000BDF81E308A4AA2FB03235B099BB2DBB25A
:100EC0008DF816309DF816303033DBB28DF81630C1
:100ED000BDF81E30824AA2FB03125209642101FBB5
:100EE00002F29B1AADF81E30BDF81E307D4AA2FBFF
:100EF0000323DB089BB2DBB28DF815309DF815306B
:100F00003033DBB28DF81530BDF81E20754BA3FBD6
:100F10000213D9080B469B000B445B00D31AADF8B3
:100F20001E30BDF81E30DBB23033DBB28DF814302A
:100F3000BDF83630ADF81C30BDF81C30674AA2FB56
:100F400003239B099BB2DBB28DF813309DF813305D
:100F50003033DBB28DF81330BDF81C305F4AA2FB92
:100F6000031292094FF47A7101FB02F29B1AADF859
:100F70001C30BDF81C305A4AA2FB03235B099BB20C
:100F8000DBB28DF812309DF812303033DBB28DF8C1
:100F90001230BDF81C30524AA2FB031252096421E0
:100FA00001FB02F29B1AADF81C30BDF81C304D4A13
:100FB000A2FB0323DB089BB2DBB28DF811309DF856
:100FC00011303033DBB28DF81130BDF81C20454BA9
:100FD000A3FB0213D9080B469B000B445B00D31AFA
:100FE000ADF81C30BDF81C30DBB23033DBB28DF80D
:100FF000103003223C490C98FFF796FC07223B492E
:101000000C98FFF791FC0DF11303012219460C987F
:10101000FFF78AFC0DF11203012219460C98FFF725
:1010200083FC0DF11103012219460C98FFF77CFC9B
:1010300004AB012219460C98FFF776FC04222C49D8
:101040000C98FFF771FC0DF11703012219460C985B
:10105000FFF781FC0DF11603012219460C98FFF7EA
:101060007AFC0DF11503012219460C98FFF773FC69
:1010700005AB012219460C98FFF76DFCBDF8363020
:101080000133ADF83630BDF83630312B7FF6ECAE9B
:10109000172218490C98FFF75EFC174B1B68322289
:1010A00002FB03F30122B2FBF3F307EE903AF8EEF2
:1010B000677ACDED097A104B1B68322202FB03F3ED
:1010C0000E4AB2FBF3F3089301210898FFF73CF9AD
:1010D0000023184617B030BD88000020D34D6210A1
:1010E0001F85EB51CDCCCCCC3062000834620008B7
:1010F0003C620008FC6300081000002080DE8002D3
:1011000000B587B00390029101920093039B1B6886
:1011100098470490049B039AC3F8DC20049B029A2E
:101120001A60049B019A5A60049B009A9A60049B7F
:10113000089ADA60049B099A1A61049BBDF828207A
:101140009A82049B0D4A1A67049B0D4ADA66049B37
:101150000C4A9A660023059308E0049B059A3232F4
:10116000002143F82210059B01330593059B032BB7
:10117000F3DD049B184607B05DF804FB432200082A
:101180009D2200086F23000800B585B00390039BE3
:1011900000229A75039B0022DA75039B1B68DB799A
:1011A0009AB200230093134600220021039800F016
:1011B0001FF8039BD3F8DC305B6800210398984745
:1011C000039BDB69002B02D0039BDB69984700BFC0
:1011D00005B05DF804FB00B583B00190019BD3F826
:1011E000DC305B6A0198984700BF03B05DF804FBF0
:1011F00010B584B00390084611461A4603468DF890
:101200000B300B468DF80A301346ADF80830039BBF
:10121000D3F8DC309C68BDF808009DF80A209DF8E2
:101220000B10069B009303460398A04700BF04B031
:1012300010BD10B584B0039001921A460B468DF88C
:101240000B301346ADF80830039BD3F8DC30DC6973
:10125000BDF808309DF80B10019A0398A04703468B
:10126000184604B010BD10B584B0039001921A4620
:101270000B468DF80B301346ADF80830039BD3F8BE
:10128000DC301C6ABDF808309DF80B10019A0398F9
:10129000A0470346184604B010BD00B583B00190C6
:1012A0000B468DF8033013468DF80230019BD3F8BE
:1012B000DC301B699DF802209DF8031001989847C7
:1012C00000BF03B05DF804FB00B583B001900B468E
:1012D0008DF80330019BD3F8DC309B699DF8032027
:1012E0001146019898470346184603B05DF804FB81
:1012F00000B583B001900B468DF8033013468DF88E
:101300000230019BD3F8DC305B699DF802209DF828
:1013100003100198984700BF03B05DF804FB84B048
:1013200001900091002303931CE0019B039A323249
:1013300053F82230002B0DD0019B039A323253F820
:101340002230009A9A4201D1002310E0039B01331E
:10135000039307E0019B039A3232009943F822106D
:10136000002304E0039B032BDFDD4FF0FF3318461F
:1013700004B0704700B58FB0039001921A460B4637
:101380008DF80B301346ADF80830019B0B93039B8F
:1013900059689DF80B2013465B0013449B001344CF
:1013A0000B440A930023ADF836300023ADF8163015
:1013B0000A9B1B789BB2BDF80820934228BF1346B6
:1013C000ADF82630BDF826301A460A99019804F087
:1013D0005FF9BDF82630019A13440193BDF8082047
:1013E000BDF82630D31AADF80830BDF83620BDF868
:1013F00026301344ADF836300A9B1B789AB2BDF8FC
:10140000163013449BB2ADF816300023ADF83430DB
:101410004AE10A9BD3F80920BDF834301B0113447C
:101420009B68002B35D00A9BD3F80920BDF83430D7
:101430001B0113449B680893089B1B789BB2BDF863
:101440000820934228BF1346ADF82630BDF8263059
:101450001A460899019804F01BF9BDF82630019A44
:1014600013440193BDF80820BDF82630D31AADF817
:101470000830BDF83620BDF826301344ADF83630BC
:10148000089B1B789AB2BDF8163013449BB2ADF896
:1014900016300023ADF83230F3E00A9BD3F8092070
:1014A000BDF834301B011344D968BDF8322013460F
:1014B0005B001344DA00D31A0B440793079B1B7895
:1014C0009BB2BDF80820934228BF1346ADF82630E2
:1014D000BDF826301A460799019804F0D9F8BDF8EE
:1014E0002630019A13440193BDF80820BDF8263038
:1014F000D31AADF80830BDF83620BDF826301344B5
:10150000ADF83630079B1B789AB2BDF816301344FD
:101510009BB2ADF81630079BD3F80D30002B2FD0BF
:10152000079BD3F80D10079BD3F81120BDF80830A6
:101530009342A8BF1346ADF82630BDF826301A46B0
:10154000019804F0A5F8BDF82630019A13440193E0
:10155000BDF80820BDF82630D31AADF80830BDF824
:101560003620BDF826301344ADF83630079BD3F84B
:1015700011309AB2BDF8163013449BB2ADF8163054
:101580000023ADF8303070E0079BD3F80910BDF8A8
:10159000302013461B019B1A0B440693069B1B78B5
:1015A0009BB2BDF80820934228BF1346ADF8263001
:1015B000BDF826301A460699019804F069F8BDF87E
:1015C0002630019A13440193BDF80820BDF8263057
:1015D000D31AADF80830BDF83620BDF826301344D4
:1015E000ADF83630069B1B789AB2BDF8163013441E
:1015F0009BB2ADF81630069BD3F80730002B2FD0E6
:10160000069BD3F80710069BD3F80B20BDF80830D3
:101610009342A8BF1346ADF82630BDF826301A46CF
:10162000019804F035F8BDF82630019A134401936F
:10163000BDF80820BDF82630D31AADF80830BDF843
:101640003620BDF826301344ADF83630069BD3F86B
:101650000B309AB2BDF8163013449BB2ADF8163079
:10166000BDF830300133ADF83030079B1B799BB2A9
:10167000BDF830209A4287D3BDF832300133ADF83F
:1016800032300A9BD3F80920BDF834301B011344D3
:101690001B799BB2BDF832209A42FFF4FEAEBDF832
:1016A00034300133ADF834300A9B1B799BB2BDF85E
:1016B00034209A42FFF4ADAE0B9B0233BDF81620E6
:1016C0001A80BDF8363018460FB05DF804FB82B0C2
:1016D0000346ADF80630BDF806301B0A9BB218462B
:1016E00002B0704782B00346ADF80630BDF8063050
:1016F000DBB2184602B0704700B589B00390029182
:1017000001920093029B5B889BB21846FFF7EAFFA9
:101710000690029B5B889BB21846FFF7D8FF0346F2
:10172000022B16D0032B27D0012B40F09D80039B6A
:101730001A68019B1A60039B1B681B789AB2009B76
:101740001B88934228BF13469AB2009B1A8001233C
:101750008BE0039B1A69019B1A60069BD9B2019B1F
:101760001A68009B1B880398FFF704FE03461A467D
:10177000009B1A80012378E0039B1B690593069B5D
:10178000002B17D1059B002242F009029A7000221B
:1017900042F00402DA70059B04221A70059B1B7844
:1017A0009AB2009B1B88934228BF13469AB2009BB3
:1017B0001A8051E0069B013B0493039B9B68002B1E
:1017C00001D1002351E0039BDB68049A9A4201DBBC
:1017D00000234AE0029B9B889BB240F2094293425D
:1017E00001D0002341E0039B9A68049B9B001344B3
:1017F0001B68184603F08CFF03460133DBB25B0025
:10180000DAB2059B1A70059B1B789AB2009B1B8865
:10181000934228BF13469AB2009B1A800023079375
:1018200012E0039B9A68049B9B0013441A68079B71
:1018300013441B7899B2059A079B5B0013440A4630
:101840005A80079B01330793009B1B885B089BB260
:10185000013B079A9A42E4DB059B03225A70019BE5
:10186000059A1A60012300E00023184609B05DF8CC
:1018700004FB00B585B00390029101920093029B96
:101880001B78002B04D1029B5B889BB27F2B01D974
:10189000002318E0029B5B889BB2DAB2039B9A7527
:1018A000039BD3F8DC3093F83030002B0AD0039B35
:1018B000D3F8DC305B68029A528892B2D2B21146F9
:1018C000039898470123184605B05DF804FB00B55E
:1018D00089B003900291019200934FF0FF33069379
:1018E000029B5B889BB2002B24D00023079315E05A
:1018F000029B5B8899B2039B5868079A13465B006A
:1019000013449B00134403445B799BB2994202D178
:10191000079B069309E0079B01330793039B1B6812
:101920005B7C1A46079B9342E2D3069B002B01DAAD
:1019300000236AE0069BDBB20133DAB2039BDA755F
:10194000039BDB7D002B2AD0039B5968039BDB7D27
:101950001A4613465B0013449B0013440D3B0B4493
:1019600005930023079314E0059BD3F80920079BF8
:101970001B0113441B68002B08D0059BD3F80920DA
:10198000079B1B0113441B6800221A70079B01333D
:101990000793059B1B791A46079B9342E4D3039B4D
:1019A000D3F8DC30DB6803989847039BD3F8C83042
:1019B000002B29D00023079308E0039B079A0932E4
:1019C000002143F83210079B01330793079B032B39
:1019D000F3D90023079314E0039B079A323253F89C
:1019E0002230002B0AD0039B079A323253F8223060
:1019F000029A528892B2114603989847079B013386
:101A00000793079B032BE7D90123184609B05DF81C
:101A100004FB86B00390029101920093009B1B8807
:101A2000012B02D9009B01221A80039BDB7D002B36
:101A300012D0039B5968039BDB7D1A4613465B005B
:101A400013449B0013440D3B0B440593019B1B68FF
:101A5000059A52791A7003E0019B1B6800221A70E4
:101A60000123184606B0704700B587B00390029175
:101A700001920093039B5968039BDB7D1A46134632
:101A80005B0013449B0013440D3B0B440593029BE6
:101A90009B889AB2059B1B799BB29A4201D3002383
:101AA00039E0059BD3F80920029B9B889BB21B0160
:101AB00013440493029B5B889AB2049B1B799BB2EC
:101AC0009A4201D3002326E0049B1B68002B07D019
:101AD000029B5B889AB2049B1B68D2B21A7006E024
:101AE000029B5B889BB2002B01D0002313E0039B79
:101AF000D3F8D830002B0AD0039BD3F8D830029A01
:101B0000928891B2029A528892B203989847009BA9
:101B100000221A800123184607B05DF804FB86B046
:101B20000390029101920093039B5968039BDB7D14
:101B30001A4613465B0013449B0013440D3B0B44B1
:101B40000593029B9B889AB2059B1B799BB29A4294
:101B500001D3002317E0009B01221A80059BD3F8D4
:101B60000920029B9B889BB21B0113441B680493B2
:101B7000049B002B02D0049B1A7800E00022019BFA
:101B80001B681A700123184606B0704784B0039092
:101B9000029101920093009B1B88022B02D9009BAB
:101BA00002221A80019B1B6800221A70019B1B688D
:101BB000013300221A700123184604B0704784B024
:101BC0000390029101920093009B1B88022B02D983
:101BD000009B02221A80019B1B6800221A70019B45
:101BE0001B68013300221A700123184604B07047A5
:101BF00000B585B00390029101920093009B1B8871
:101C0000022B02D9009B02221A80029B9B889BB266
:101C1000DBB219460398FFF757FB0346002B14BFAE
:101C200001230023DAB2019B1B681A70019B1B6819
:101C3000013300221A700123184605B05DF804FB39
:101C400000B585B00390029101920093029B9B889E
:101C50009BB2DBB2012219460398FFF71EFB01235A
:101C6000184605B05DF804FB00B585B003900291FD
:101C700001920093029B9B889BB2DBB20022194623
:101C80000398FFF70AFB0123184605B05DF804FB33
:101C900010B586B003900291019200930023059342
:101CA000029B5B78092B2BD801A252F823F000BFCE
:101CB000FB1C0008D91C0008011D0008D91C0008E5
:101CC000011D0008E31C0008F51C0008011D0008A8
:101CD000EF1C0008E91C0008029B5B88029B5B88E4
:101CE0000EE00F4B05930BE00E4B059308E00E4BF7
:101CF000059305E00D4B059302E00D4B059300BFE6
:101D0000059B002B01D1002306E0059C009B019A56
:101D100002990398A0470346184606B010BD00BFBD
:101D200073180008CF180008131A0008F9160008E5
:101D30008D1B000810B586B00390029101920093AC
:101D400000230593029B5B780B2B24D801A252F849
:101D500023F000BF911D0008971D0008971D000883
:101D6000971D0008971D0008971D0008971D000883
:101D7000971D0008971D0008971D0008851D000885
:101D80008B1D00080B4B059305E00B4B059302E000
:101D90000A4B059300BF059B002B01D1002306E0F1
:101DA000059C009B019A02990398A0470346184698
:101DB00006B010BD1F1B0008691A0008BF1B0008F1
:101DC00010B586B003900291019200930023059311
:101DD000029B5B780C2B33D801A252F823F000BF92
:101DE000351E0008151E0008411E0008251E0008AB
:101DF000411E0008411E0008411E0008411E000847
:101E0000411E0008411E0008411E0008411E000836
:101E1000411E0008029B5B889BB2002B0DD1104B2A
:101E200005930AE0029B5B889BB2002B07D10D4B08
:101E3000059304E00C4B059302E000BF00E000BFF7
:101E4000059B002B01D1002306E0059C009B019A15
:101E500002990398A0470346184606B010BD00BF7C
:101E6000691C0008411C0008F11B000800B585B082
:101E70000390029101920093029B1B7803F0600390
:101E8000002B01D0002322E0029B1B7803F01F03EC
:101E9000012B0BD0022B11D0002B17D1009B019AE4
:101EA00002990398FFF7F4FE034610E0009B019AA5
:101EB00002990398FFF73EFF034608E0009B019A52
:101EC00002990398FFF77CFF034600E000231846C1
:101ED00005B05DF804FB00B583B00190012200213C
:101EE0000198FFF7DAF9019B002283F82C2000BF4C
:101EF00003B05DF804FB82B00346ADF806300B4634
:101F0000ADF8043013468DF80330BDF80620BDF857
:101F100004309A4210D2BDF80630002B0CD0BDF828
:101F200006309DF8032093FBF2F102FB01F29B1AAD
:101F3000002B01D1012300E00023184602B07047B6
:101F400086B0039001930B468DF80B3013468DF845
:101F50000A300023059322E0039B059A093253F8C7
:101F60003230002B03D0059B0133059317E0039A11
:101F7000059B0933DB0013449DF80B201A71039A6B
:101F8000059B0933DB0013449DF80A205A71039B1B
:101F9000059A0932019943F83210002304E0059BA9
:101FA000032BD9DD4FF0FF33184606B0704700B55C
:101FB00083B00190019B1B68DB799AB2019B9B8FD8
:101FC0009A4220D2019B9A6B019B1B68DB799BB2E2
:101FD00000210198FFF72DF9019B022283F82C20A4
:101FE000019B9B6B019A1268D2791A44019B9A63F8
:101FF000019B9A8F019B1B68DB799BB2D31A9AB223
:10200000019B9A871CE0019B9A6B019B9B8F00218F
:102010000198FFF70EF9019B93F84430002B01D093
:10202000022200E00322019B83F82C20019B002266
:1020300083F84420019B00229A87019B00229A6327
:1020400000BF03B05DF804FB00B585B00190019BB3
:10205000DB8E1A46019B9B8FD31A019A1268D279A4
:102060009342A8BF1346ADF80E30019B9B6B019ABB
:10207000928F1A44BDF80E3000210198FFF7F3F853
:102080000346ADF80C30BDF80C20BDF80E309A4276
:1020900005D00198FFF71FFF4FF0FF3309E0019BC8
:1020A0009A8FBDF80C3013449AB2019B9A87BDF801
:1020B0000E30184605B05DF804FB10B588B00390EB
:1020C000029100230693039B483305930023079353
:1020D00036E0079BDB00059A13441B68002B33D0C6
:1020E000029B1A78079BDB0005990B445B79134030
:1020F000DAB2079BDB0005990B441B799A421CD18D
:10210000079BDB00059A13441C68039B03F138020C
:10211000039B03F13C01039B403300930B46029960
:102120000398A04703460693069B012B02D0069B0B
:10213000002B02D1069BDBB211E0079B0133079312
:10214000079B032BC5DD00E000BF039B03F13802B2
:10215000039B3C3302990398FFF788FE0346184619
:1021600008B010BD00B583B001900091019B1A69C1
:10217000019B9A63009BDB889AB2019B9A87009926
:102180000198FFF79AFF0346002B23D0009BDB88C2
:102190009BB2002B13D0019B988F009BDB8899B2D8
:1021A000019B1B68DB791A46FFF7A5FE03461A461A
:1021B000019B83F844200198FFF7F9FE0DE000230E
:1021C000002200210198FFF734F8019B042283F8D4
:1021D0002C2002E00198FFF77EFE00BF03B05DF8FF
:1021E00004FB00B583B001900091009BDB889AB29C
:1021F000019B9B8A9A4203D90198FFF76CFE1DE070
:10220000019B1A69019B9A63019B00229A87009B9C
:10221000DB889AB2019B1B68DB799BB29A4204D996
:10222000019B052283F82C2003E0019B062283F802
:102230002C20002200210198FFF75AF803B05DF826
:1022400004FB00B585B001900B468DF80330019B6F
:1022500030330393019B00221A640122002101986C
:10226000FFF746F8039BDB889BB2002B04D1039950
:102270000198FFF777FF0DE0039B1B785BB2002B03
:1022800004DA03990198FFF76DFF03E003990198C1
:10229000FFF7A7FF00BF05B05DF804FB00B583B0F2
:1022A00001900B468DF80330019B93F82C30062BE0
:1022B00019D0072B35D0052B4CD10198FFF7C4FE60
:1022C0000346002B4ADB019BDB8E1A46019B9B8F4A
:1022D000D31A019A1268D279934241DC019B0622FB
:1022E00083F82C203CE00198FFF7AEFE0346002B5C
:1022F00038DB019B303319460198FFF7DEFE0346B9
:10230000002B0AD00023002200210198FEF791FF44
:10231000019B042283F82C2025E00198FFF7DBFDC8
:1023200021E00023002200210198FEF79CFF019B81
:10233000002283F82C20019B1B6C002B06D0019BF4
:102340001B6C019A3032114601989847019B00227C
:102350001A6408E00198FFF7BEFD04E000BF02E048
:1023600000BF00E000BF00BF03B05DF804FB00B594
:1023700085B001900B468DF80330019B30330393F9
:10238000019B93F82C30032B07D0042B0FD0022B8A
:1023900030D10198FFF70BFE2FE0019B072283F855
:1023A0002C20002200210198FEF7A2FF25E0019BCE
:1023B0001B6C002B06D0019B1B6C019A303211461E
:1023C00001989847039B1B78002B0ED1039B5B78E9
:1023D000052B0AD1019BD3F8DC305B68039A528845
:1023E00092B2D2B2114601989847019B002283F81D
:1023F0002C2002E00198FFF76EFD00BF05B05DF8EC
:1024000004FB82B001900B468DF80330019BD3F89A
:10241000DC30DB6A03F500631B6823F4FE639DF880
:10242000032012011146019AD2F8DC20D26A02F58B
:1024300000620B43136000BF02B0704784B001908C
:10244000084611461A4603468DF803300B468DF8B0
:1024500002301346ADF800309DF8033023F07F03BF
:102460008DF80F309DF8033003F07F038DF80330B3
:102470009DF80330002B40F09880BDF800303F2BD2
:1024800009D9019BD3F8DC30DB6A03F510631A46E7
:102490000023136024E0BDF800301F2B09D9019BF5
:1024A000D3F8DC30DB6A03F510631A4601231360AE
:1024B00016E0BDF800300F2B09D9019BD3F8DC30B2
:1024C000DB6A03F510631A460223136008E0019BE0
:1024D000D3F8DC30DB6A03F510631A46032313607C
:1024E000BDF80030019AD2F8DC20D26A02F5116200
:1024F00003F07F031360019BD3F8DC30DB6A03F544
:1025000010631B68019AD2F8DC20D26A02F51062CF
:1025100043F008431360BDF8003003F07F0343F03D
:10252000005343F400231A46019BC3F8E820019BA3
:10253000D3F8DC30DB6A03F531631A46019BD3F82C
:10254000E8301360019BD3F8DC30DB6A03F53063BD
:102550001B68019AD2F8DC20D26A02F5306243F09F
:1025600008431360BDF800309B089BB21B04019A1E
:10257000D2F8DC20528E1A43019BD3F8DC30DB6AA0
:1025800028331A60019BB3F8E020BDF800309B08A7
:102590009BB213449AB2019BA3F8E020019BB3F8CD
:1025A000E020019BA3F8E220BFE09DF80F30002B54
:1025B00065D0BDF800309B089BB21B04019AB2F8AD
:1025C000E0201A439DF8033040339B001946019BDD
:1025D000D3F8DC30DB6A0B441A60019BB3F8E020CF
:1025E000BDF800309B089BB213449AB2019BA3F83C
:1025F000E020BDF800309DF8032052011146019AF9
:10260000D2F8DC20D26A0A4402F5116203F07F039B
:1026100013609DF8033048335B011A46019BD3F8E1
:10262000DC30DB6A13441A689DF802309B0443F0E7
:10263000184343F400439DF8031089051943BDF87E
:1026400000300B4318469DF8033048335B011946B0
:10265000019BD3F8DC30DB6A0B44194642EA0003E5
:102660000B60049B002B0AD09DF8032001991346B0
:102670005B0013449B000B446833049A1A609DF876
:102680000F30002B51D1BDF8003003F07F0343F42D
:1026900000239DF803201946019B3A3243F822108B
:1026A0009DF803209DF803305B011946019BD3F888
:1026B000DC30DB6A0B4403F531631946019B3A3287
:1026C00053F822300B609DF8033058335B011A46F3
:1026D000019BD3F8DC30DB6A13441A689DF80230A2
:1026E0009B0443F0144343F40043BDF800100B4334
:1026F00018469DF8033058335B011946019BD3F807
:10270000DC30DB6A0B44194642EA00030B60049B91
:10271000002B0AD09DF80320019913465B00134457
:102720009B000B446C33049A1A6004B0704784B069
:102730000190019BB3F8E220019BA3F8E020012364
:10274000039346E0039B58335B011A46019BD3F881
:10275000DC30DB6A13441B68002B15DA039B58330B
:102760005B011A46019BD3F8DC30DB6A13441B681B
:10277000039A583252011146019AD2F8DC20D26AEB
:102780000A4443F080431360039B48335B011A46BD
:10279000019BD3F8DC30DB6A13441B68002B15DA8D
:1027A000039B48335B011A46019BD3F8DC30DB6A9C
:1027B00013441B68039A483252011146019AD2F819
:1027C000DC20D26A0A4443F080431360039B013348
:1027D0000393039B032BB5DD019BD3F8DC30DB6A4D
:1027E00010331A464FF48663136000BF04B070477D
:1027F00082B001900B468DF8033013468DF80230FD
:102800009DF80330002B34D19DF80230002B18D0F6
:102810009DF8033048335B011A46019BD3F8DC3046
:10282000DB6A13441B689DF80320483252011146AD
:10283000019AD2F8DC20D26A0A4443F400131360F0
:1028400017E09DF8033048335B011A46019BD3F82B
:10285000DC30DB6A13441B689DF8032048325201C8
:102860001146019AD2F8DC20D26A0A4423F40013FC
:1028700013609DF90330002B53DA9DF8033003F009
:102880007F038DF803309DF80230002B18D09DF89F
:10289000033048335B011A46019BD3F8DC30DB6A16
:1028A00013441B689DF80320483252011146019AD7
:1028B000D2F8DC20D26A0A4443F4001313607DE0AE
:1028C0009DF8033048335B011A46019BD3F8DC3096
:1028D000DB6A13441B689DF80320483252011146FD
:1028E000019AD2F8DC20D26A0A4423F40013136060
:1028F0009DF8033048335B011A46019BD3F8DC3066
:10290000DB6A13441B689DF80320483252011146CC
:10291000019AD2F8DC20D26A0A4443F08053136053
:102920004CE09DF80230002B18D09DF8033058334E
:102930005B011A46019BD3F8DC30DB6A13441B6849
:102940009DF80320583252011146019AD2F8DC203A
:10295000D26A0A4443F4001313602FE09DF8033059
:1029600058335B011A46019BD3F8DC30DB6A134411
:102970001B689DF80320583252011146019AD2F883
:10298000DC20D26A0A4423F4001313609DF803305C
:1029900058335B011A46019BD3F8DC30DB6A1344E1
:1029A0001B689DF80320583252011146019AD2F853
:1029B000DC20D26A0A4443F08053136000BF02B0A7
:1029C000704782B001900B468DF803309DF90330BB
:1029D000002B14DA9DF8033003F07F0348335B01CA
:1029E0001A46019BD3F8DC30DB6A13441B6803F4FE
:1029F0000013002B14BF01230023DBB211E09DF86C
:102A0000033058335B011A46019BD3F8DC30DB6A94
:102A100013441B6803F40013002B14BF012300238D
:102A2000DBB2184602B0704782B001900B468DF8B9
:102A3000033013468DF802309DF90330002B3DDB47
:102A40009DF80330019A13449DF8022083F8E42096
:102A50009DF80230002B18D09DF8033058335B01ED
:102A60001A46019BD3F8DC30DB6A13441B689DF8DF
:102A70000320583252011146019AD2F8DC20D26A62
:102A80000A4443F00063136019E09DF803305833A3
:102A90005B011A46019BD3F8DC30DB6A13441B68E8
:102AA0009DF80320583252011146019AD2F8DC20D9
:102AB000D26A0A4443F08063136000E000BF02B0B2
:102AC000704786B0039001921A460B468DF80B3082
:102AD0001346ADF80830019B05939DF80B3003F0C9
:102AE0007F038DF80B309DF80B305B011A46039B7A
:102AF000D3F8DC30DB6A134403F511631B6803F47D
:102B00000023002B01D0002342E0BDF8083043F43D
:102B100000229DF80B305B011946039BD3F8DC3093
:102B2000DB6A0B4403F511631A609DF80B304833E0
:102B30005B011A46039BD3F8DC30DB6A13441B6845
:102B40009DF80B20483252011146039AD2F8DC203E
:102B5000D26A0A4443F004431360BDF8083004937A
:102B600011E0059B1A1D05929DF80B2001321203FE
:102B70001146039AD2F8DC20D26A0A441B6813601B
:102B8000049B043B0493049B002BEADCBDF8083053
:102B9000184606B0704700B589B0039001921A46F6
:102BA0000B468DF80B301346ADF80830019B0693A9
:102BB000039BB3F8F830BDF80820934228BF1346B2
:102BC000ADF80830BDF80830079316E0039BD3F842
:102BD000DC30DB6A03F580531946069B1A1D06920A
:102BE0000A681A60039BB3F8F830043B9AB2039B5F
:102BF000A3F8F820079B043B0793079B032BE5DC16
:102C0000079B002B1FD0039BD3F8DC30DB6A03F556
:102C100080531B680593039BB3F8F830032B04D84B
:102C2000039B0022A3F8F82007E0039BB3F8F830D9
:102C3000043B9AB2039BA3F8F820079A05AB194608
:102C4000069802F025FDBDF80830184609B05DF879
:102C500004FB84B001900091009B48335B011A464D
:102C6000019BD3F8DC30DB6A13441B68009A4832BE
:102C700052011146019AD2F8DC20D26A0A4443F08C
:102C80000063136000BF009B5B011A46019BD3F8F1
:102C9000DC30DB6A134403F608131B6803F04003BF
:102CA000002BF0D0009B48335B011A46019BD3F800
:102CB000DC30DB6A13441B689B0D03F00F030393A6
:102CC00000BF019BD3F8DC30DB6A10331B68002B9C
:102CD000F7DA039B9B01019AD2F8DC20D26A10320A
:102CE00043F020031360009B5B011A46019BD3F85D
:102CF000DC30DB6A134403F511631A4600231360CA
:102D000000BF019BD3F8DC30DB6A10331B6803F093
:102D10002003002BF5D100BF04B0704700B589B087
:102D20000190019BD3F8DC30DB6A14331B680593F8
:102D3000059B03F40053002B13D0019BD3F8DC3028
:102D4000DB6A14331A464FF400531360019BD3F827
:102D5000DC305A8E019BA3F8E0200198FEF714FAAC
:102D600082E10023079337E0079B5B011A46019B32
:102D7000D3F8DC30DB6A134403F608131B6803F056
:102D80000103002B25D00199079A13465B001344D9
:102D90009B000B4468331B68002B0DD00199079AE8
:102DA00013465B0013449B000B4468331B68079A6F
:102DB000D2B2114601989847079B5B011A46019BC6
:102DC000D3F8DC30DB6A134403F608131A460123F8
:102DD0001360079B01330793079B032BC4DD059BFF
:102DE00003F01003002B00F0E080019BD3F8DC30EF
:102DF000DB6A20331B680493049B03F4F0130393F2
:102E0000049BDBB203F00F038DF80B30039BB3F58B
:102E1000002F0ED19DF80B20019913465B0013443F
:102E20009B000B4470331B689DF80B2011460198E2
:102E30009847039BB3F5C02F03D0039BB3F5002F36
:102E400037D19DF80B209DF80B305B011946019B93
:102E5000D3F8DC30DB6A0B4403F531631946019B80
:102E60003A3253F822300B609DF80B3058335B0137
:102E70001A46019BD3F8DC30DB6A13441B689DF8CB
:102E80000B2001990A4492F8E420002A02D04FF066
:102E9000084201E04FF004429DF80B1058314901FF
:102EA00008460199D1F8DC10C96A014413430B604C
:102EB000DAE0039BB3F5802F04D0039BB3F5402FDA
:102EC00040F0D180039BB3F5402F03D102238DF84E
:102ED0001B3002E001238DF81B309DF81B30022BC4
:102EE00015D19DF80B305B011A46019BD3F8DC30FD
:102EF000DB6A134403F511631B6803F40023002B02
:102F000005D09DF80B3019460198FFF7A2FE049BEF
:102F10001B099BB2C3F30A039AB2019BA3F8F820E2
:102F20009DF81B30022B09D1019B03F130029DF863
:102F30000B1008230198FFF72EFE1EE09DF80B20D2
:102F40009DF81B00019913465B00134403441A3398
:102F500051F82330002B10D09DF80B209DF81B005A
:102F6000019913465B00134403441A3351F823308C
:102F70009DF80B201146019898470023079309E01C
:102F8000019BD3F8DC30DB6A03F580531B68079B99
:102F900004330793019BB3F8F8301A46079B93421A
:102FA000EEDB019B0022A3F8F820059B03F40063ED
:102FB000002B0FD0019B1B6A002B02D0019B1B6AC8
:102FC0009847019BD3F8DC30DB6A14331A464FF480
:102FD00000631360059B002B0FDA019B5B6A002BDB
:102FE00002D0019B5B6A9847019BD3F8DC30DB6A17
:102FF00014331A464FF000431360059B03F0080397
:10300000002B0ED0019B9B6A002B02D0019B9B6A78
:103010009847019BD3F8DC30DB6A14331A46082347
:103020001360019B9B6A002B0ED0019BD3F8DC3010
:10303000DB6A18331B68019AD2F8DC20D26A183296
:1030400043F0080313600FE0019BD3F8DC30DB6A28
:1030500018331B68019AD2F8DC20D26A183223F0A8
:103060000803136000E000BF09B05DF804FB82B004
:1030700001900B468DF803309DF80330002B10D0E3
:10308000019BD3F8DC30DB6A03F604031B68019A6A
:10309000D2F8DC20D26A02F6040243F00203136085
:1030A0000FE0019BD3F8DC30DB6A03F604031B68F6
:1030B000019AD2F8DC20D26A02F6040223F002035D
:1030C000136000BF02B0704708B540F28760FDF79B
:1030D00073F82E4B1B682D4A43F04003136000BF6A
:1030E0002B4B1B68002BFBDA294B1B68284A43F04B
:1030F0000103136000BF264B1B6803F00103002B84
:10310000F9D1244B1B68B3F5005F06D3224B1B6833
:10311000214A43F40413136005E01F4B1B681E4A49
:1031200043F4102313601D4B1B681C4A23F0020359
:103130001360164B1B68154A43F0804343F47053E9
:103140001360174B02221A60164B1B68154A43F096
:1031500003031360144B00221A608022134B1A6081
:103160008022134BA3F8E020124B1B68114A43F056
:1031700001031360104B114A1A60114B0F221A60A1
:10318000104B01221A600A4B184608BD0C00005073
:10319000100000503C00005038000050040800505F
:1031A0001400005000080050000E00502400005091
:1031B000C8010020080000501800005010280480AA
:1031C0001C0800501008005082B0104B0193104BA7
:1031D000009307E0019A131D0193009B191D0091B4
:1031E00012681A60009B0B4A9342F3D30A4B009378
:1031F00005E0009B00221A60009B04330093009BB3
:10320000064A9342F5D300BF02B070473866000803
:10321000000000208400002084000020D402002050
:1032200008B5FFF7D1FF064BD3F88830044A43F4C2
:103230007003C2F8883000F005F8FDF7A3FBFEE745
:1032400000ED00E00D4B01221A600C4B00229A6049
:103250000A4B1B68094A23F0847323F480331360FC
:10326000064B074A5A60054B1B68044A23F4802327
:103270001360024B0022DA6000BF70470038024042
:103280001030002408B5FFF7DDFF294B1B68284AE2
:1032900043F48033136000BF254B1B6803F40033F5
:1032A000002BF9D0224B1B6C214A43F0805313644E
:1032B000204B1B681F4A43F4804313601C4B1C4A7D
:1032C0009B6893601A4B9B68194A43F4A053936020
:1032D000174B9B68164A43F400439360144B164AFD
:1032E0005A60134B1B68124A43F08073136000BF8F
:1032F0000F4B1B6803F00073002BF9D00F4B40F20B
:1033000005721A600A4B9B68094A23F00303936015
:10331000074B9B68064A43F00203936000BF044BCF
:103320009B6803F00803082BF9D100BF08BD00BF5C
:10333000003802400070004008544007003C024042
:1033400030B51F4A21F00043934287B01CDD1D4A6F
:10335000934205DD02460B4602F068FA07B030BD25
:1033600002AA00F025FF00F003000128DDE9042394
:1033700012D002281CD0A0B1DDE9020101F0FCF955
:1033800001F1004107B030BD00230093002200236B
:1033900001F01AFF07B030BDDDE9020101F0ECF9E0
:1033A000DCE70124DDE90201009401F00DFFD5E71F
:1033B0000124DDE90201009401F006FFE0E700BF0F
:1033C000FB21E93FFFFFEF7F2DE9F04FDFF82C9362
:1033D0008DB006460F4614461D4600F095F999F942
:1033E0000080B8F1FF3FCDE9000136D022462B46E0
:1033F0002046294602F06CFE834670BB32463B46AF
:103400003046394602F064FE8246002840F0A28031
:10341000304639460022002302F028FE10B3002275
:1034200000232046294602F021FE8346002867D06B
:103430009FEDA77B0122AC4BCDF828A00292CDE9ED
:103440000467CDE906458DED087B0393B8F1000FC5
:1034500041D09FEDA17B8DED007BDDE900010DB03A
:10346000BDE8F08FDDE9000101F068FF804600282B
:1034700000F08D804FF0000A4FF0000BDDE90001F5
:1034800052465B4602F0F2FD0028E6D0304639464F
:1034900001F054FF0028E0D02046294601F04EFFFD
:1034A0000028DAD099F900308F4A039204210022D3
:1034B000022BCDE90467CDE90645CDE908AB0291C1
:1034C0000A9203D002A801F0BFFF50B902F0DAF867
:1034D0002223036005E002A801F0B6FF002800F0F7
:1034E0009B800A9B1BB102F0CDF80A9B03609DED07
:1034F000087B8DED007BDDE900010DB0BDE8F08FAC
:103500002046294601F01AFF0028A6D000220023F9
:103510002046294602F0B4FD00289ED0724A99F94F
:103520000030CDF828B00121CDE90467CDE906458A
:10353000CDE90212002B74D06C490020022BCDE99A
:10354000080172D102F09EF8212303600A9B002B30
:10355000CDD0C8E7002200232046294602F086FD90
:1035600000283FF47AAF624B5F49CDF828B00022C3
:103570000120B8F1020FCDE904670290CDE90645BC
:10358000CDE908230391A6D1CDE9002365E73046B4
:10359000394601F0D3FE00283FF46CAF204629469F
:1035A00001F0CCFE00283FF465AFDDE900231046B2
:1035B000194602F08DFD99F900A000286BD1032374
:1035C000DFF824C10A902946204602930022494B85
:1035D000CDF80CC0CDE90645CDE9046702F0DEFA6E
:1035E00004460D46BAF1000F25D1DFF814B14FF0B3
:1035F000604A0022002330463946CDE908AB02F08C
:103600003FFD38BB02A801F01FFF00289ED102F049
:1036100039F82223036099E702F034F8212303608C
:103620005FE79FED2B7B8DED087B02A801F00CFF7F
:1036300000288BD186E79FED2A7B002200233046AD
:1036400039468DED087B02F01BFDA0B9BAF1020FDF
:10365000DDD0D7E72046294601F0FEFE22462B4664
:1036600002F004FDA0B9244B99F900A04FF060428C
:10367000CDE90823EAE72046294601F0EDFE22467F
:103680002B4602F0F3FC18B9184B0022CDE90823B1
:1036900099F900A0DAE70122134BCDF828800292B5
:1036A000CDE90467CDE906450393BAF1000FB8D020
:1036B000002200231046194602F09AFBBAF1020FCD
:1036C000CDE908013FF43EAFAFE700BFAFF30080A4
:1036D0000000000000000000000000000000F03FBB
:1036E000000000000000F07F486400080000F0FFC8
:1036F0000000F03F0000E03FFFFFEFC71C0000208C
:10370000FFFFEF47000000002DE9F04F23F00045D8
:1037100055EA020493B00DD06B4E21F00044B44240
:103720000F4682460BDD04F1404404F5801454EA50
:103730000A0350D16549002013B0BDE8F08F9B46C5
:10374000944647D0B542EEDC5F4EB5425DD0002FC7
:1037500080468946CDE900235BDB0026BCF1000FE3
:103760000ED1594B9D423FD0584B9D4200F088806E
:10377000BBF1804F00F09C80554B9B4500F0B88317
:103780004046494601F0D6FDBAF1000F06D1002CA3
:1037900059D04E4B27F040429A4254D0FF0F013F80
:1037A00056EA070373D04B4B9D4240F39B8003F1D5
:1037B00004739D4240F33E84474B9C4272DDBBF153
:1037C000000F72DD3EA3D3E900231046194602F034
:1037D000E5F9B1E728B1414813B0BDE8F04F01F079
:1037E00035BEA542F7DCAFE704F1404303F5801393
:1037F00053EA0A039ED0384B9C4240F38383BBF1CB
:10380000000F52DBDDE9000196E7BCF1000F9ED00E
:1038100089E7334B9D4231DCA3F154739D429CDD1B
:103820002B15A3F2FF33142B40F3A583C3F134030C
:103830002CFA03F202FA03F363458ED102F001027F
:10384000C2F102068AE7BBF1000F05DA02460B4619
:1038500000201E4902F0CCFA002FBFF66DAF04F134
:10386000404404F5801454EA060300F03F84012E1E
:103870007FF462AF01F1004319465DE702266DE770
:10388000BBF1000FC0F248834046494654E7424628
:103890004B461046194601F0C9FF02460B4602F09E
:1038A000A7FA49E7BBF1000F8CDB0020002143E7BA
:1038B00042464B464046494602F070F93CE700BF9D
:1038C0009C7500883CE4377E0000F07F0000F03FEC
:1038D0000000E03F0000E041FFFFEF3F4C640008C4
:1038E000FFFF3F43B4F5801F80F261830022D24B7B
:1038F00002F054F96FF0340C0C462315CF4DC4F38D
:103900001302A3F2FF3342F07F546344AA420B93A5
:1039100044F4401440F33F83C94B9A4240F304847B
:103920009FEDAF7B8DED087B8DED107B9FEDAE7B2A
:103930000B9B8DED067B01330B93A4F580140025C2
:10394000DDE906232146824601F070FFA346DDE94A
:1039500006238046894650462146CDE90CAB01F04E
:1039600067FF02460B460020B64902F041FA0A46BC
:103970000146CDE90E12134649460246404602F082
:103980000DF9631043F0005382468B4603F5002384
:103990008C46CDE904AB5919D3460023CDE902BCCE
:1039A0000293DDE902AB002004460D4602460B46B9
:1039B0005046594602F0F2F802460B464046494648
:1039C00001F034FFDDE9062380468946204629467A
:1039D00001F02CFF02460B46DDE90C0101F026FF49
:1039E00052465B4602F0DAF802460B46404649462C
:1039F00001F01CFFDDE90E2302F0D0F8DDE90445FB
:103A0000CDE9060122462B462046294602F0C6F89B
:103A100077A3D3E9002304460D4602F0BFF876A34E
:103A2000D3E9002301F004FF22462B4602F0B6F84A
:103A300073A3D3E9002301F0FBFE22462B4602F0DC
:103A4000ADF871A3D3E9002301F0F2FE22462B4624
:103A500002F0A4F86EA3D3E9002301F0E9FE2246A8
:103A60002B4602F09BF86CA3D3E9002301F0E0FEA3
:103A70002246804689462B462046294602F08EF88B
:103A800002460B464046494602F088F85246044634
:103A90000D465B46DDE9040101F0CAFEDDE90623BF
:103AA00002F07CF822462B4601F0C2FE52468046C8
:103AB00089465B465046594602F070F80022624B38
:103AC000CDE90C0101F0B4FE42464B4601F0B0FED8
:103AD00002980D46044622462B465046594602F0AF
:103AE0005DF8002282468B46574B2046294601F05E
:103AF0009DFEDDE90C2301F099FE02460B4640468F
:103B0000494601F093FEDDE9042302F047F822461E
:103B1000804689462B46DDE9060102F03FF8024661
:103B20000B464046494601F083FE804689460246E0
:103B30000B465046594601F07BFE029838A3D3E964
:103B4000002304460D4602F029F85246CDE904014F
:103B50005B462046294601F069FE02460B46404678
:103B6000494601F063FE30A3D3E9002302F016F8C2
:103B70002FA3D3E90023804689462046294602F038
:103B80000DF802460B464046494601F051FEDDE97C
:103B9000102301F04DFE80460B98894601F094FFFA
:103BA000424682468B464B46DDE9040101F040FE69
:103BB000DDE9082301F03CFE52465B4601F038FE89
:103BC000029852465B4604460D4601F02FFEDDE9A1
:103BD000082301F02BFEDDE9042337E0AFF300807A
:103BE0000000000000000000000000000000F03FA6
:103BF000EF4E454A287ECA3F65DBC9934A86CD3FD2
:103C000001411DA96074D13F4D268F515555D53FB7
:103C1000FFAB6FDBB66DDB3F033333333333E33F4F
:103C2000000000E009C7EE3FFD033ADC09C7EE3FA4
:103C3000F5015B14E02F3EBE000040438E98030068
:103C400079B60B000000F03F0000084001F0EEFDE7
:103C50000B4602464946404601F0E8FD013E56EA61
:103C6000070382468B4600F05E819FEDD37B8DED8E
:103C7000047BDDE9001200230E461746CDE90267FA
:103C80000293DDE9026708463B461146324601F0E1
:103C9000CDFD22462B4601F081FFDDE90023804661
:103CA00089465046594601F079FF02460B46404688
:103CB000494601F0BDFD3246804689463B462046D6
:103CC0002946CDE9008901F069FF0B460246064608
:103CD0000F464046494601F0ABFDD14B99420446A0
:103CE0000D468A4640F3248101F13F4303F5E0038A
:103CF000034340F0FF81B2A3D3E90023DDE90001D3
:103D000001F096FD3246804689463B4620462946CC
:103D100001F08CFD02460B464046494602F0CEF9C2
:103D2000002840F0E781A8464FEA2853A3F2FE326C
:103D30004FF4801313415344C3F30A52B94DA2F216
:103D4000FF321541C3F3130423EA05010020C2F139
:103D5000140B44F48014BAF1000F02460B4644FAE7
:103D60000BFB30463946B8BFCBF1000B01F05EFDCE
:103D700006460F463246DDE900013B4601F058FD9C
:103D80004FEA0B5A0D4600248FA3D3E900232046A7
:103D9000294601F003FF3246804689463B462046CD
:103DA000294601F043FD02460B46DDE9000101F022
:103DB0003DFD87A3D3E9002301F0F0FE86A3D3E9FC
:103DC000002306460F462046294601F0E7FE02463C
:103DD0000B463046394601F02BFD06460F4602469B
:103DE0000B464046494601F023FD42464B460446F9
:103DF0000D4601F01BFD02460B463046394601F0E8
:103E000015FD2246804689462B462046294601F06C
:103E1000C5FE73A3D3E9002306460F4601F0BEFE9C
:103E200071A3D3E9002301F001FD32463B4601F0C6
:103E3000B5FE6FA3D3E9002301F0FAFC32463B46FE
:103E400001F0ACFE6CA3D3E9002301F0EFFC324695
:103E50003B4601F0A3FE6AA3D3E9002301F0E8FC8E
:103E600032463B4601F09AFE02460B462046294662
:103E700001F0DCFC06460F4602460B46204629466A
:103E800001F08CFE0022CDE900014FF08043304666
:103E9000394601F0CBFC02460B46DDE9000101F09A
:103EA000A7FF424606460F464B462046294601F0EC
:103EB00075FE42464B4601F0BBFC02460B463046BF
:103EC000394601F0B3FC22462B4601F0AFFC024616
:103ED0000B460020544901F0A9FC8A44BAF5801F22
:103EE000C0F232815146DDE9042301F057FE23E49C
:103EF000002FFFF645AC4046494613B0BDE8F04FF1
:103F000000F078BBBBF1000FBFF6CFACDDE90034A9
:103F1000184604F100410FE442464B460020424956
:103F200001F066FF08E49FED387B8DED047BA0E691
:103F30003E4B21F00048984540F3EA803C4B0B444F
:103F400003430AD132463B4601F070FCDDE9002311
:103F500002F0AAF800283FF4E7AEDDE904012CA343
:103F6000D3E9002301F01AFE29A3D3E9002301F0CD
:103F700015FEFFF7E1BBBCF1000F40F0D280C3F1AA
:103F8000140345FA03F202FA03F3AB4200F0E080B7
:103F90006646FFF7E9BB9FED207B8DED087B8DED3D
:103FA000107B9FED057B00258DED067BC8E44FF06F
:103FB000000CA2E4AFF30080000000000000F03F1E
:103FC000FE822B654715973C00000000432EE63F1C
:103FD000EF39FAFE422EE63F396CA80C615C20BE38
:103FE000D0A4BE726937663EF16BD2C541BDBB3EFF
:103FF0002CDE25AF6A56113F93BDBE166CC1663FDD
:104000003E5555555555C53F000000000000F0BF16
:1040100059F3F8C21F6EA501000000000000000067
:10402000FFFF8F40FFFF0F000000F03FFFCB9040ED
:1040300000346F3F5A4B9C427FF734AC594B9C4243
:104040003FF7BDAB0022574B01F0F0FB44A3D3E98F
:10405000002304460D4601F0A1FD43A3D3E900234C
:1040600082468B462046294601F098FD0022CDE984
:1040700002014D4B2046294601F090FD02460B46B9
:104080003BA1D1E9000101F0D1FB22462B4601F012
:1040900085FD02460B460020444901F0C7FB22463D
:1040A000804689462B462046294601F077FD024688
:1040B0000B464046494601F071FD2FA3D3E900238A
:1040C00001F06CFD02460B46DDE9020101F0AEFB9A
:1040D00002460B46804689465046594601F0A8FBE9
:1040E000002004460D4652465B46AFE502460B46AD
:1040F000FFF7CFBBDDE9040121A3D3E9002301F0E1
:104100004DFD1FA3D3E9002301F048FDFFF714BBC9
:10411000264B98453FF708AEDDE9022392469346C9
:1041200031E60026FFF72CBB9FED177B8DED087B5A
:104130009FED177B8DED107B9FED177B4FF4802556
:104140008DED067BFFF7FCBB5A4601F015FACAE677
:1041500002F00102C2F10206FFF706BBAFF30080D6
:10416000000000604715F73F44DF5DF80BAE543E9A
:10417000555555555555D53FFE822B654715F73F8B
:104180009C7500883CE4377E0000004003B8E23FA5
:1041900006D0CF43EBFD4C3E000000000000F83F8E
:1041A000FEFFEF3F0000F03F0000D03F0000E03F87
:1041B0002DE9F047CA4B21F000479F4290B080465E
:1041C000894640F38F80C74B9F420C46924626DCBF
:1041D0000029B9A3D3E9002340F38F8001F026FB27
:1041E000C14B9F4204460D4600F04781B4A3D3E97A
:1041F000002301F01BFB02460B46CAE900232046C0
:10420000294601F013FBAEA3D3E9002301F00EFB16
:104210000125CAE90201284610B0BDE8F087B34B7A
:104220009F4240F38980B24B9F4200F31C813D15B1
:10423000A5F21645A7EB055319461F46064601F0A1
:104240005DFF01F041FC8046894642464B463046C0
:104250003946CDE90A8901F0E9FA0022A54B01F0BF
:104260009DFC8946804601F049FF01F02DFC064681
:104270000F4632463B4640464946CDE90C6701F0C1
:10428000D5FA00229B4B01F089FC00220023CDE9E6
:104290000E0101F0EBFE002800F0608100233046A3
:1042A0003946002201F0E2FE002814BF0123022358
:1042B000914A019202212A4600910AA8514600F033
:1042C00083FB002C054614DADAF80420DAF80C3007
:1042D00002F1004203F100434542CAF80420CAF843
:1042E0000C3006E000200021C2E90089C2E9020189
:1042F0000025284610B0BDE8F08701F099FA7A4B06
:104300009F4204460D4600F00B816DA3D3E90023C4
:1043100001F08EFA02460B46CAE9002329462046E0
:1043200001F084FA66A3D3E9002301F081FA4FF08B
:10433000FF35CAE90201DCE700F0FCFF62A3D3E924
:1043400000238046894601F029FC00226B4B01F0D6
:104350006FFA01F0D3FE054601F0B6FB56A3D3E990
:104360000023CDE9060101F019FC02460B46404648
:10437000494601F05BFA52A3D3E9002380468946FF
:10438000DDE90601CDE9028901F008FC1F2D024696
:104390000B46CDE9042340F3B380DDE90423DDE9D6
:1043A000020101F043FA804689463F15C9F30A53DA
:1043B000FB1A102B40F3B18045A3D3E90023DDE9BC
:1043C000060101F0EBFB8046894602460B46DDE91B
:1043D000020101F02BFA02460B46DDE90201CDE9AC
:1043E000082301F023FA42464B4601F01FFA3AA394
:1043F000D3E9002380468946DDE9060101F0CEFBC2
:1044000042464B4601F012FA0B46CDE90401024642
:10441000DDE9080101F00AFAC1F30A53FF1A312F4E
:104420008046894600F39C809DED087BCAE900899F
:104430008DED027B42464B46DDE9020101F0F6F9C3
:10444000DDE9042301F0F2F9002CCAE90201BFF60C
:1044500050AF09F1004401F100436D42CAE9008404
:10446000CAE9020345E702460B4601F0DFF90025E1
:10447000CAE90201CAE900013BE715A3D3E9002319
:1044800001F0D4F914A3D3E900230D46044601F04A
:10449000CDF902460B46CAE900232946204601F021
:1044A000C5F90DA3D3E9002301F0C0F90125CAE93C
:1044B00002011EE7AFF3008000004054FB21F93FEA
:1044C0003163621A61B4D03D83C8C96D305FE43F87
:1044D0000000601A61B4D03D7370032E8A19A33BAB
:1044E000FB21E93F7BD90240FB21F93FFB21394108
:1044F000FFFFEF7F00007041D06400080000E03F44
:104500004046494601F092F9394B6A1E804653F8FD
:104510002230BB4289463FF448AFCAE9008989E7A7
:104520002BA3D3E9002301F083F92BA3D3E90023C4
:104530000D46044601F07CF902460B46CAE9002309
:104540002946204601F072F923A3D3E9002301F0A4
:104550006FF94FF0FF35CAE90201CAE60323A7E667
:104560001FA3D3E90023DDE9060101F017FB06468E
:104570000F4602460B46DDE9080101F057F9804677
:10458000894602460B46DDE90801CDE9028901F0C2
:104590004DF932463B4601F049F913A3D3E9002314
:1045A00006460F46DDE9060101F0F8FA32463B46C1
:1045B00001F03CF902460B4640464946CDE904234A
:1045C00001F034F980468946A7E700BFAFF30080C9
:1045D0000000601A61B4D03D7370032E8A19A33BAA
:1045E0000000002E8A19A33BC14920259A837B39FC
:1045F000506400085E4A8A432DE9F04104460D46A6
:1046000000F0958000290B460646844656DD0F15BE
:1046100000F0A580C3F31303A7F2FF3743F4801320
:104620004FEADC72F80702EB43034FEA4C0504D56E
:10463000ED0F05EB43034FEA8C0500267F10B446CF
:1046400016224FF400110CEB010098424FEAD5748A
:104650004FEA450503DC1B1A00EB010C0E44013A3E
:1046600004EB43034FEA5101EDD110469646202456
:104670004FF0004209E051D05B00013C03EBD573E1
:104680004FEA52024FEA450537D0634502EB0E016F
:10469000F1DD002901EB020E0ADBE046A3EB0C037F
:1046A000A94288BF03F1FF336D1A1044C446E3E703
:1046B000BEF1000FF1DB0CF10108EFE721F0004241
:1046C000024329D0002942D10146CA0A153B4905B7
:1046D000002AFAD012F4801001D044E06046520063
:1046E000D40200F1010CF9D5CCF1200401FA0CFC44
:1046F000E1401F1A41EA02038CE72B4321D1440811
:10470000731003F17F53F20703F5001348BF44F021
:10471000004403EB07512046BDE8F081A942ABD825
:10472000002901EB020EC3DB98460023BCE70246DA
:104730000B4601F033FA22462B4601F079F8BDE82A
:10474000F081411C16BF421C01365408D8E70246CE
:1047500001F06CF802460B4601F04AFBDCE71A4612
:1047600031463B46B6E78C4620244FF0FF30BFE78A
:104770000000F07F000000002DE9F04F21F000481C
:10478000B8F1795F85B006460F4692469B466BDAD4
:1047900001F0B4FC002800F0E18032463B46304690
:1047A000394601F0FBF974A3D3E9002304460D4612
:1047B00001F0F4F972A3D3E9002301F039F822469D
:1047C0002B4601F0EBF970A3D3E9002301F02EF89A
:1047D00022462B4601F0E2F96DA3D3E9002301F054
:1047E00027F822462B4601F0D9F96BA3D3E9002321
:1047F00001F01CF822462B4601F0D0F968A3D3E95A
:10480000002301F015F822462B4601F0C7F9CDE947
:1048100000010022664B2046294601F0BFF9DDE980
:104820000023804689462046294601F0B7F95246C2
:1048300004460D465B463046394601F0AFF9024664
:104840000B462046294600F0F1FF02460B46404643
:10485000494600F0EBFF02460B460020554900F0A8
:10486000E5FF05B0BDE8F08F02460B4601F096F972
:1048700041A3D3E9002304460D4601F08FF940A37C
:10488000D3E9002300F0D4FF22462B4601F086F93D
:104890003DA3D3E9002300F0C9FF22462B4601F0D7
:1048A0007DF93BA3D3E9002300F0C2FF22462B464B
:1048B00001F074F938A3D3E9002300F0B7FF2246D2
:1048C0002B4601F06BF936A3D3E9002300F0B0FFCB
:1048D0002B46224601F062F9374B9845CDE900019D
:1048E00097DD364B98453EDCA8F5001300220020EA
:1048F00030499046994600F099FFCDE90201002227
:104900002B4B2046294601F049F942464B4600F020
:104910008DFFDDE90023804689462046294601F0C7
:104920003DF9524604460D465B463046394601F095
:1049300035F902460B462046294600F077FF02462D
:104940000B464046494600F071FF02460B46DDE942
:10495000020100F06BFF05B0BDE8F08F15490020A3
:1049600005B0BDE8F08F9FED107B4FF000088DED96
:10497000027BDFF84C90C2E7D43888BEE9FAA8BDC4
:10498000C4B1B4BD9EEE213EAD529C804F7E923E9E
:104990009015CB19A001FA3E7751C1166CC1563F54
:1049A0004C5555555555A53F000000000000E73F08
:1049B0000000E03F0000F03F3233D33F0000E93F0A
:1049C0000000D23F000000002DE9F04FADF5197D49
:1049D000BE4CA29EBE4D54F826600793D41E85FBA4
:1049E0000475E417C4EBA50424EAE4741D46631CB3
:1049F000A3EB8303013D02EBC303059373190496F4
:104A00000994019503900B91A4EB05071AD43B443C
:104A1000002400255E1C0DF18008DDF88C9208E072
:104A200059F8270001F050F80137B742E8E80201D1
:104A300008D0002FF4DA013720462946B742E8E8CB
:104A40000201F6D1049B002B079B4FEAC30302939C
:104A50002ADB039A20A902EB030801EB0309049B5C
:104A600072AA02EBC30B0DF5E07A019B002B4FF00D
:104A700000064FF0000711DB039C4D4675E9022349
:104A8000F4E8020101F08AF802460B463046394646
:104A900000F0CEFE444506460F46EFD1EAE8026735
:104AA000DA4509F10809E0D1DDE90204049920445E
:104AB0008B0082460BA8A3F10802C31808930CAB25
:104AC00013440A938B4698AB03EBCB03BBF1000F67
:104AD00053E9284529DD70AB03EBCB080DF1300914
:104AE00000227C4B2046294601F058F801F006FBD5
:104AF00000F0EAFF0022784B06460F4601F04EF820
:104B000002460B462046294600F090FE01F0F6FAD8
:104B100078E9022349F8040B3946304600F088FE54
:104B200070AB984504460D46DAD1DDF81490204666
:104B300029464A4600F020FD00224FF07F530446EC
:104B40000D4601F02BF800F0FFFB0022634B01F053
:104B500025F802460B462046294600F067FE0D4622
:104B6000044601F0CBFA804600F0AEFF0B46024649
:104B70002946204600F05AFE4B46002B06460F46BB
:104B800040F3E1800BF1FF320CA9C9F1180351F891
:104B9000225045FA03F101FA03F30CA8EB1A40F88E
:104BA0002230C9F11705884443FA05F5002D2CDDA4
:104BB000BBF1000F08F1010840F381820C9C002C2E
:104BC00040F0A780BBF1010F0AD00CA9012251F8D7
:104BD000044F531C002C40F09E809B451A46F6D192
:104BE000059B002B0EDD012B00F0D980022B09D193
:104BF0000BF1FF320CAB0CA953F82230C3F31503B1
:104C000041F82230022D00F0AF8000220023304610
:104C1000394601F02BFA002800F05382049B0BF177
:104C2000FF394B4510DC0BF180430CAA013B08987F
:104C300002EB8303002253F80419834242EA010283
:104C4000F9D1002A40F0B680049B0CAA013B52F82F
:104C50002330002B40F0A1800A9A012352F8041956
:104C600001330029FAD05B440BF101099945069301
:104C70004CDC099A079909EB020801EB0B0508F1D6
:104C8000804802EB030BA39B08F1FF3803EB880875
:104C900070AB03EBC909A39B20A903EB8B0301EBCA
:104CA000C505029358F8040F00F00EFF0B4601995A
:104CB0000246002905F1080BC5E900234FF0000664
:104CC0004FF000071CDB039C0CE000BF18660008D7
:104CD000ABAAAA2A0000703E0000704100002040EC
:104CE00075E90223F4E8020100F058FF02460B4682
:104CF0003046394600F09CFD544506460F46EFD13C
:104D0000029B9845E9E802675D46CBD1DDF818B013
:104D1000D9E6012300220CA9C4F180749B4541F817
:104D200022400EDD51F8232001EB8B0001EB8303C1
:104D30006FF07F4100E01A688A1A43F8042B83421F
:104D4000F9D101244CE706D10BF1FF330CAA52F83C
:104D50002350ED152AE700227B4B01F0A5F900282E
:104D600040F0A381054650E732463B460020774994
:104D700000F05CFD06460F46002C3FF446AF059A56
:104D80007249002000F0F8FB02460B4630463946D7
:104D900000F04CFD06460F4637E7012363E70BF1B1
:104DA000FF320CAB0CA953F82230C3F3160341F8C1
:104DB000223027E70CAB059A53F82930183ACDE991
:104DC000068505926BB909F18043013B0CA901EB03
:104DD000830353F8041909F1FF39183A0029F8D070
:104DE0000592059A5949002000F0C6FBB9F1000F61
:104DF00004460D46C0F2C0814FEAC90370AA02EB17
:104E0000030808930CAB03EB8906DFF844B14FF0BD
:104E1000000A08F10807043656F8040D00F054FEA5
:104E200022462B4600F0BAFE5B4667E90201524675
:104E30002046294600F0B2FE0CAB9E4204460D46C9
:104E4000EAD148AB03930193CDF8149009F1010323
:104E5000DDF810900293C3464FF0000AB9F1000F3D
:104E6000C0F22A81DFF8EC805D4635A3D3E9002348
:104E700000260027002403E0544510DCF8E8022354
:104E8000F5E8020100F08AFE02460B46304639463C
:104E900000F0CEFC0134A14506460F46ECDA019B3A
:104EA000E3E802670193029B0AF1010A9A45ABF11C
:104EB000080BD3D1A29BDDF81490032B39D8DFE87F
:104EC00013F0D900060006004D0048AB0393B9F17A
:104ED000000F4FF000004FF0000109DB039D05EBD0
:104EE000C904083474E9022300F0A2FCA542F9D1F8
:104EF000079B002B40F01E810B9BC3E900010B4672
:104F000003990246D1E9000100F090FCB9F1000FCD
:104F10000CDD4AAD01240134F5E8022300F088FCE1
:104F2000A145F8DA079B002B40F014810B9BC3E9E5
:104F30000201069B03F007000DF5197DBDE8F08F17
:104F400000000040FB21F93F0000E03F0000F03F7F
:104F50000000703EE065000848AB0393B9F1000F14
:104F600040F32781039ACDF810904FEAC9030193CB
:104F7000D318D3E900AB09F10053013B02EBC90898
:104F80000293914678E9026752465B4630463946BD
:104F900000F04EFC04460D4602460B4630463946AC
:104FA00000F044FC52465B4600F042FCC145A2467C
:104FB000AB46C8E90201C8E90045E3D1DDF810902D
:104FC000B9F1010F40F3F580019B039A0299134454
:104FD000C900D3E9006701F1080A019192440DF577
:104FE000947B7AE9028932463B464046494600F0C6
:104FF0001FFC04460D4602460B464046494600F05B
:1050000015FC32463B4600F013FCD34526462F469E
:10501000CAE90201CAE90045E3D1019C039B1034AF
:10502000002000211C4403F1100574E9022300F064
:10503000FFFBA542F9D1039C079ED4E90023D4E9E4
:105040000245002E00F08A8003F1004701F1004381
:105050000B99C1E90403069B2646944605F10044DA
:1050600003F00700C1E900C7C1E902640DF5197D2D
:10507000BDE8F08F089C039D0834002000212C44DB
:1050800074E9022300F0D4FBA542F9D1079B13B1C8
:1050900001F1004319460B9BC3E90001069B03F095
:1050A00007000DF5197DBDE8F08FBBF1000F08F189
:1050B000010874DD022581E500260027EFE60024C3
:1050C0008EE5CDE90685059D304639466A4200F0F9
:1050D00053FA0022384B06460F4600F0E5FF00B3B6
:1050E0000022364B3046394600F058FD01F006F8F4
:1050F000044600F0E9FC00222F4B00F04FFD0B4668
:1051000002463946304600F091FB00F0F7FF0BF104
:1051100001090CAB183543F82B00059543F82940DD
:105120005FE63046394600F0E9FF0CABD94643F85C
:105130002B0056E60B9C01F10043C4E900030B462B
:1051400003990246D1E9000100F070FBB9F1000FAC
:105150003FF7DFAE01F100431946E7E60B9EC6E9D3
:105160000023069BC6E9040103F00700C6E90245D7
:105170000DF5197DBDE8F08FA29B032B3FF6D9AE4C
:1051800001A252F823F000BF99510008CB4E00084D
:10519000CB4E0008594F00080020002176E7324628
:1051A0003B460020064900F041FB022506460F461B
:1051B0002BE5002000213EE7000070410000703E1A
:1051C0000000F03F000000002DE9F04F21F0004604
:1051D000B6F1795F85B004460D469046994604DAEB
:1051E00000F08CFF002800F0858022462B462046E8
:1051F000294600F0D3FC06460F4602460B462046E1
:10520000294600F0CBFC41A3D3E9002382468B461C
:105210003046394600F0C2FC3EA3D3E9002300F03B
:1052200005FB32463B4600F0B9FC3CA3D3E9002322
:1052300000F0FEFA32463B4600F0B0FC39A3D3E959
:10524000002300F0F3FA32463B4600F0A7FC37A3F8
:10525000D3E9002300F0ECFA0E9BCDE900019BB3EB
:105260000022294B4046494600F098FCDDE9002326
:10527000CDE902015046594600F090FC02460B462B
:10528000DDE9020100F0D2FA32463B4600F086FC2E
:1052900042464B4600F0CAFA19A3D3E9002306465A
:1052A0000F465046594600F079FC02460B46304600
:1052B000394600F0BDFA02460B462046294600F06A
:1052C000B5FA05B0BDE8F08F02460B4630463946C8
:1052D00000F064FC0AA3D3E9002300F0A7FA5246C9
:1052E0005B4600F05BFC22462B4600F0A1FA05B0BD
:1052F000BDE8F08F2046294605B0BDE8F08F00BF1D
:10530000495555555555C53F0000E03F7CD5CF5A0E
:105310003AD9E53DEB9C2B8AE6E55A3E7DFEB15736
:10532000E31DC73ED561C119A0012A3FA6F810119F
:105330001111813F21F000431946704741F00041AF
:1053400001F58010C00F70472DE9F041C1F30A57F5
:10535000A7F2FF35132D02460B460C46884606463B
:105360001DDC002D3CDB364F2F4101EA070C5CEAC7
:10537000000C19D030A3D3E9002300F059FA002221
:10538000002300F09BFEC8B3002C04DA4FF4801316
:1053900043FA05F5A84428EA070400262EE0332D39
:1053A00006DDB5F5806F2DD010461946BDE8F081B9
:1053B000A7F213474FF0FF3C2CFA07F70742F3D050
:1053C0001DA3D3E9002300F033FA0022002300F0EC
:1053D00075FE98B1002C21DB26EA070644460DE055
:1053E00015A3D3E9002300F023FA0022002300F0E4
:1053F00065FE18B1002C08DB0026344621463046F5
:10540000BDE8F08100F014FAD0E724F000430D4A23
:105410001E43002E18BF14460026EFE7142D08D0B7
:105420000123C5F1340503FA05F5AE1928BF9844E8
:10543000D2E704F10108CFE79C7500883CE4377E91
:10544000FFFF0F000000F0BF00207047002001495F
:10545000704700BF0000F87F2DE9F041C1F30A5703
:10546000A7F2FF35132D82B002460B460C464FEAD9
:10547000D178064633DC002D4EDB3C49294103EA56
:105480000100104326D049080B4052EA03060CD015
:105490004FF48023132D24EA010143FA05F444EA72
:1054A00001040CBF4FF000460026314901EBC8084B
:1054B0002346D8E9004532462046294600F0B8F98F
:1054C000CDE9000122462B46DDE9000100F0AEF9EE
:1054D00002460B461046194602B0BDE8F081332D56
:1054E00007DDB5F5806FF5D100F0A2F902460B4655
:1054F000F0E7A7F213474FF0FF31F9400842E9D037
:1055000049080842D1D04FF0804320EA010143FA14
:1055100007F741EA0706C8E721F000410143D9D067
:10552000C3F3130101434E420E43114D5C0C360B85
:10553000640406F4002305EBC80243EA0401D2E93F
:1055400000450B4602462946204600F071F9CDE998
:10555000000122462B46DDE9000100F067F921F049
:105560000041024641EAC873B4E700BFFFFF0F00E5
:105570002866000800000000F8B5C1F30A5304468D
:105580000D460E4617460BBB21F00046034633433B
:105590001BD0354B002200F001FB344B9F420446E8
:1055A0000D4635DBC1F30A530E46363B3B4440F211
:1055B000FE72934232DC002B11DD26F0FF4626F40A
:1055C000E00646EA035520462946F8BD40F2FF7240
:1055D0009342EBD102460B4600F02AF9F8BD13F1D5
:1055E000350F28DA4CF250339F4222462B460ADD13
:1055F00019A1D1E9000100F03DF817A3D3E9002378
:1056000000F0CCFAF8BD16A1D1E9000100F032F8A3
:1056100013A3D3E9002300F0C1FAF8BD22462B46BC
:105620000DA1D1E9000100F025F80BA3D3E9002377
:1056300000F0B4FAF8BD26F0FF4626F4E006363353
:1056400046EA0355204629460022094B00F0A6FAF7
:10565000F8BD00BFAFF300809C7500883CE4377E46
:1056600059F3F8C21F6EA50100005043B03CFFFF84
:105670000000903C03F0004321F0004242EA0301A5
:10568000704700BF014B1868704700BF2000002022
:1056900010B5431E0A44914200D110BD11F8014BD0
:1056A00003F8014FF7E7000038B5134B1C68A36BF4
:1056B0007BB9182000F034F8104A114BA063C0E900
:1056C0000023104B83600B23838101220023C0E958
:1056D0000423A16B0C480A694B690C4C504304FB32
:1056E0000300A2FB04230344541C43F10005C1E959
:1056F000044525F0004038BD200000200E33CDAB1E
:1057000034126DE6ECDE05002DF451582D7F954CDA
:10571000034613F8012B002AFBD1181A01387047F1
:10572000024B0146186800F003B800BF20000020BB
:1057300070B5CD1C25F0030508350C2D38BF0C25A0
:10574000002D064601DBA94203D90C23336000205B
:1057500070BD00F057F8214A1468214691B9204CD9
:1057600023681BB9304600F03DF8206029463046DA
:1057700000F038F8431C24D10C233360304600F08D
:1057800042F8E4E70B685B1B18D40B2B0FD90B60B6
:10579000CD50CC18304600F036F804F10B00231D34
:1057A00020F00700C31AD3D05A42E250D0E78C420F
:1057B0004B6816BF636013600C46EBE70C46496804
:1057C000CCE7C41C24F00304A04205D0211A3046C3
:1057D00000F008F80130CFD02560DBE7C4020020DC
:1057E000C802002038B5064C002305460846236051
:1057F00000F00AF8431C02D1236803B12B6038BDC6
:10580000D002002070477047044A05491368002BF6
:1058100008BF0B461844106018467047CC020020A1
:10582000D402002081F0004102E000BF83F0004379
:1058300030B54FEA41044FEA430594EA050F08BF2B
:1058400090EA020F1FBF54EA000C55EA020C7FEAEF
:10585000645C7FEA655C00F0E2804FEA5454D4EB6C
:105860005555B8BF6D420CDD2C4480EA020281EA36
:10587000030382EA000083EA010180EA020281EA6E
:105880000303362D88BF30BD11F0004F4FEA0131C0
:105890004FF4801C4CEA113102D0404261EB4101CF
:1058A00013F0004F4FEA03334CEA133302D0524255
:1058B00063EB430394EA050F00F0A780A4F1010411
:1058C000D5F1200E0DDB02FA0EFC22FA05F280184B
:1058D00041F1000103FA0EF2801843FA05F3594131
:1058E0000EE0A5F120050EF1200E012A03FA0EFCB0
:1058F00028BF4CF0020C43FA05F3C01851EBE371DA
:1059000001F0004507D54FF0000EDCF1000C7EEBF6
:1059100000006EEB0101B1F5801F1BD3B1F5001F34
:105920000CD349085FEA30004FEA3C0C04F1010453
:105930004FEA445212F5800F80F09A80BCF1004F7C
:1059400008BF5FEA500C50F1000041EB045141EAFE
:10595000050130BD5FEA4C0C404141EB010111F4FF
:10596000801FA4F10104E9D191F0000F04BF0146AA
:105970000020B1FA81F308BF2033A3F10B03B3F188
:1059800020020CDA0C3208DD02F1140CC2F10C0218
:1059900001FA0CF021FA02F10CE002F11402D8BF76
:1059A000C2F1200C01FA02F120FA0CFCDCBF41EA42
:1059B0000C019040E41AA2BF01EB0451294330BD11
:1059C0006FEA04041F3C1CDA0C340EDC04F11404EE
:1059D000C4F1200220FA04F001FA02F340EA0300C5
:1059E00021FA04F345EA030130BDC4F10C04C4F10B
:1059F000200220FA02F001FA04F340EA03002946EB
:105A000030BD21FA04F0294630BD94F0000F83F434
:105A1000801306BF81F480110134013D4EE77FEA17
:105A2000645C18BF7FEA655C29D094EA050F08BF63
:105A300090EA020F05D054EA000C04BF1946104644
:105A400030BD91EA030F1EBF0021002030BD5FEA88
:105A5000545C05D14000494128BF41F0004130BDB0
:105A600014F580043CBF01F5801130BD01F0004504
:105A700045F0FE4141F470014FF0000030BD7FEA77
:105A8000645C1ABF194610467FEA655C1CBF0B4672
:105A9000024650EA013406BF52EA033591EA030F89
:105AA00041F4002130BD00BF90F0000F04BF002181
:105AB000704730B54FF4806404F132044FF00005B4
:105AC0004FF0000150E700BF90F0000F04BF00212D
:105AD000704730B54FF4806404F1320410F0004593
