:020000040800F2
:100000000000022041000008E9000008E9000008A3
:10001000E9000008E9000008E9000008000000000D
:10002000000000000000000000000000E9000008DF
:10003000E900000800000000E9000008E9000008ED
:1000400008B500F025F8104B1B680F4A43F0010378
:1000500013600D4B00229A600B4B1B680A4A23F079
:10006000847323F480331360074B084A5A60064BAD
:100070001B68054A23F480231360034B0022DA60D7
:1000800000F034F8FEE700BF0038024010300024D2
:1000900082B0104B0193104B009307E0019A131D9F
:1000A0000193009B191D009112681A60009B0B4A76
:1000B0009342F3D30A4B009305E0009B00221A60A1
:1000C000009B04330093009B064A9342F5D300BF84
:1000D00002B07047AC0100080000002010000020B2
:1000E0001000002020000020FEE7000000B583B0D3
:1000F0000023019312E01C4A019B52F823201B4964
:10010000019B41F82320184A019B52F823201849EB
:10011000019B41F82320019B01330193019B032B99
:10012000E9DD144B1B6B134A43F008031363124BB6
:100130001B68114A23F07F4313600F4B1B680E4A64
:1001400043F0AA4313600C4B5B690B4A43F47043C2
:1001500053610A4800F014F8074B5B69064A83F4C0
:1001600070435361F5E700BF9C01000800000020C8
:100170001000002000380240000C024000350C0046
:1001800082B00190019B02E0019B013B0193019B26
:10019000002BF9D100BF02B0704700000100000041
:0C01A0000400000001000000040000004A
:1001AC00020000000900000008000000010000002F
:0400000508000041AE
:00000001FF
